{
  "address": "0xf95A907E599d720A22e9688238aFf1C3d2904bFb",
  "abi": [
    {
      "name": "Transfer",
      "inputs": [
        {
          "type": "address",
          "name": "_from",
          "indexed": true
        },
        {
          "type": "address",
          "name": "_to",
          "indexed": true
        },
        {
          "type": "uint256",
          "name": "_value",
          "indexed": false
        }
      ],
      "anonymous": false,
      "type": "event"
    },
    {
      "name": "Approval",
      "inputs": [
        {
          "type": "address",
          "name": "_owner",
          "indexed": true
        },
        {
          "type": "address",
          "name": "_spender",
          "indexed": true
        },
        {
          "type": "uint256",
          "name": "_value",
          "indexed": false
        }
      ],
      "anonymous": false,
      "type": "event"
    },
    {
      "outputs": [],
      "inputs": [
        {
          "type": "string",
          "name": "_name"
        },
        {
          "type": "string",
          "name": "_symbol"
        }
      ],
      "stateMutability": "nonpayable",
      "type": "constructor"
    },
    {
      "name": "decimals",
      "outputs": [
        {
          "type": "uint256",
          "name": ""
        }
      ],
      "inputs": [],
      "stateMutability": "view",
      "type": "function",
      "gas": 351
    },
    {
      "name": "transfer",
      "outputs": [
        {
          "type": "bool",
          "name": ""
        }
      ],
      "inputs": [
        {
          "type": "address",
          "name": "_to"
        },
        {
          "type": "uint256",
          "name": "_value"
        }
      ],
      "stateMutability": "nonpayable",
      "type": "function",
      "gas": 74742
    },
    {
      "name": "transferFrom",
      "outputs": [
        {
          "type": "bool",
          "name": ""
        }
      ],
      "inputs": [
        {
          "type": "address",
          "name": "_from"
        },
        {
          "type": "address",
          "name": "_to"
        },
        {
          "type": "uint256",
          "name": "_value"
        }
      ],
      "stateMutability": "nonpayable",
      "type": "function",
      "gas": 111323
    },
    {
      "name": "approve",
      "outputs": [
        {
          "type": "bool",
          "name": ""
        }
      ],
      "inputs": [
        {
          "type": "address",
          "name": "_spender"
        },
        {
          "type": "uint256",
          "name": "_value"
        }
      ],
      "stateMutability": "nonpayable",
      "type": "function",
      "gas": 37823
    },
    {
      "name": "increaseAllowance",
      "outputs": [
        {
          "type": "bool",
          "name": ""
        }
      ],
      "inputs": [
        {
          "type": "address",
          "name": "_spender"
        },
        {
          "type": "uint256",
          "name": "_added_value"
        }
      ],
      "stateMutability": "nonpayable",
      "type": "function",
      "gas": 39067
    },
    {
      "name": "decreaseAllowance",
      "outputs": [
        {
          "type": "bool",
          "name": ""
        }
      ],
      "inputs": [
        {
          "type": "address",
          "name": "_spender"
        },
        {
          "type": "uint256",
          "name": "_subtracted_value"
        }
      ],
      "stateMutability": "nonpayable",
      "type": "function",
      "gas": 39091
    },
    {
      "name": "mint",
      "outputs": [
        {
          "type": "bool",
          "name": ""
        }
      ],
      "inputs": [
        {
          "type": "address",
          "name": "_to"
        },
        {
          "type": "uint256",
          "name": "_value"
        }
      ],
      "stateMutability": "nonpayable",
      "type": "function",
      "gas": 75681
    },
    {
      "name": "burnFrom",
      "outputs": [
        {
          "type": "bool",
          "name": ""
        }
      ],
      "inputs": [
        {
          "type": "address",
          "name": "_to"
        },
        {
          "type": "uint256",
          "name": "_value"
        }
      ],
      "stateMutability": "nonpayable",
      "type": "function",
      "gas": 75699
    },
    {
      "name": "set_minter",
      "outputs": [],
      "inputs": [
        {
          "type": "address",
          "name": "_minter"
        }
      ],
      "stateMutability": "nonpayable",
      "type": "function",
      "gas": 36487
    },
    {
      "name": "set_name",
      "outputs": [],
      "inputs": [
        {
          "type": "string",
          "name": "_name"
        },
        {
          "type": "string",
          "name": "_symbol"
        }
      ],
      "stateMutability": "nonpayable",
      "type": "function",
      "gas": 178309
    },
    {
      "name": "name",
      "outputs": [
        {
          "type": "string",
          "name": ""
        }
      ],
      "inputs": [],
      "stateMutability": "view",
      "type": "function",
      "gas": 7853
    },
    {
      "name": "symbol",
      "outputs": [
        {
          "type": "string",
          "name": ""
        }
      ],
      "inputs": [],
      "stateMutability": "view",
      "type": "function",
      "gas": 6906
    },
    {
      "name": "balanceOf",
      "outputs": [
        {
          "type": "uint256",
          "name": ""
        }
      ],
      "inputs": [
        {
          "type": "address",
          "name": "arg0"
        }
      ],
      "stateMutability": "view",
      "type": "function",
      "gas": 1665
    },
    {
      "name": "allowance",
      "outputs": [
        {
          "type": "uint256",
          "name": ""
        }
      ],
      "inputs": [
        {
          "type": "address",
          "name": "arg0"
        },
        {
          "type": "address",
          "name": "arg1"
        }
      ],
      "stateMutability": "view",
      "type": "function",
      "gas": 1849
    },
    {
      "name": "totalSupply",
      "outputs": [
        {
          "type": "uint256",
          "name": ""
        }
      ],
      "inputs": [],
      "stateMutability": "view",
      "type": "function",
      "gas": 1571
    },
    {
      "name": "minter",
      "outputs": [
        {
          "type": "address",
          "name": ""
        }
      ],
      "inputs": [],
      "stateMutability": "view",
      "type": "function",
      "gas": 1601
    }
  ],
  "transactionHash": "0x95a0e94e8da5ce40614c0a7bfafc514f88bf6ae7c7409affe190bbd145df7749",
  "args": [
    "Rose DAI/USDC/USDT",
    "RoseStablesLP"
  ],
  "bytecode": "0x740100000000000000000000000000000000000000006020526f7fffffffffffffffffffffffffffffff6040527fffffffffffffffffffffffffffffffff8000000000000000000000000000000060605274012a05f1fffffffffffffffffffffffffdabf41c006080527ffffffffffffffffffffffffed5fa0e000000000000000000000000000000000060a0526040610c8d6101403934156100a157600080fd5b60606020610c8d60c03960c051610c8d016101803960406020610c8d60c03960c0516004013511156100d257600080fd5b604060206020610c8d0160c03960c051610c8d0161020039602060206020610c8d0160c03960c05160040135111561010957600080fd5b61018080600060c052602060c020602082510161012060006003818352015b8261012051602002111561013b5761015d565b61012051602002850151610120518501555b8151600101808352811415610128575b50505050505061020080600160c052602060c020602082510161012060006002818352015b82610120516020021115610195576101b7565b61012051602002850151610120518501555b8151600101808352811415610182575b505050505050336005556000610260523360007fddf252ad1be2c89b69c2b068fc378daa952ba7f163c4a11628f55a4df523b3ef6020610260a3610c7556600436101561000d57610a79565b600035601c52740100000000000000000000000000000000000000006020526f7fffffffffffffffffffffffffffffff6040527fffffffffffffffffffffffffffffffff8000000000000000000000000000000060605274012a05f1fffffffffffffffffffffffffdabf41c006080527ffffffffffffffffffffffffed5fa0e000000000000000000000000000000000060a05263313ce56760005114156100c75734156100ba57600080fd5b601260005260206000f350005b63a9059cbb60005114156101895734156100e057600080fd5b60043560205181106100f157600080fd5b5060023360e05260c052604060c02080546024358082101561011257600080fd5b80820390509050815550600260043560e05260c052604060c020805460243581818301101561014057600080fd5b8082019050905081555060243561014052600435337fddf252ad1be2c89b69c2b068fc378daa952ba7f163c4a11628f55a4df523b3ef6020610140a3600160005260206000f350005b6323b872dd60005114156102e65734156101a257600080fd5b60043560205181106101b357600080fd5b5060243560205181106101c557600080fd5b50600260043560e05260c052604060c0208054604435808210156101e857600080fd5b80820390509050815550600260243560e05260c052604060c020805460443581818301101561021657600080fd5b80820190509050815550600360043560e05260c052604060c0203360e05260c052604060c02054610140527fffffffffffffffffffffffffffffffffffffffffffffffffffffffffffffffff6101405118156102a557610140516044358082101561028057600080fd5b80820390509050600360043560e05260c052604060c0203360e05260c052604060c020555b604435610160526024356004357fddf252ad1be2c89b69c2b068fc378daa952ba7f163c4a11628f55a4df523b3ef6020610160a3600160005260206000f350005b63095ea7b360005114156103705734156102ff57600080fd5b600435602051811061031057600080fd5b5060243560033360e05260c052604060c02060043560e05260c052604060c0205560243561014052600435337f8c5be1e5ebec7d5bd14f71427d1e84f3dd0314c0f7b2291e5b200ac8c7c3b9256020610140a3600160005260206000f350005b6339509351600051141561043657341561038957600080fd5b600435602051811061039a57600080fd5b5060033360e05260c052604060c02060043560e05260c052604060c020546024358181830110156103ca57600080fd5b80820190509050610140526101405160033360e05260c052604060c02060043560e05260c052604060c020556101405161016052600435337f8c5be1e5ebec7d5bd14f71427d1e84f3dd0314c0f7b2291e5b200ac8c7c3b9256020610160a3600160005260206000f350005b63a457c2d760005114156104fa57341561044f57600080fd5b600435602051811061046057600080fd5b5060033360e05260c052604060c02060043560e05260c052604060c020546024358082101561048e57600080fd5b80820390509050610140526101405160033360e05260c052604060c02060043560e05260c052604060c020556101405161016052600435337f8c5be1e5ebec7d5bd14f71427d1e84f3dd0314c0f7b2291e5b200ac8c7c3b9256020610160a3600160005260206000f350005b6340c10f1960005114156105c157341561051357600080fd5b600435602051811061052457600080fd5b50600554331461053357600080fd5b6004805460243581818301101561054957600080fd5b80820190509050815550600260043560e05260c052604060c020805460243581818301101561057757600080fd5b808201905090508155506024356101405260043560007fddf252ad1be2c89b69c2b068fc378daa952ba7f163c4a11628f55a4df523b3ef6020610140a3600160005260206000f350005b6379cc679060005114156106845734156105da57600080fd5b60043560205181106105eb57600080fd5b5060055433146105fa57600080fd5b600480546024358082101561060e57600080fd5b80820390509050815550600260043560e05260c052604060c02080546024358082101561063a57600080fd5b808203905090508155506024356101405260006004357fddf252ad1be2c89b69c2b068fc378daa952ba7f163c4a11628f55a4df523b3ef6020610140a3600160005260206000f350005b631652e9fc60005114156106c557341561069d57600080fd5b60043560205181106106ae57600080fd5b5060055433146106bd57600080fd5b600435600555005b63e1430e0660005114156108145734156106de57600080fd5b60606004356004016101403760406004356004013511156106fe57600080fd5b60406024356004016101c037602060243560040135111561071e57600080fd5b3360206102806004638da5cb5b6102205261023c6005545afa61074057600080fd5b601f3d1161074d57600080fd5b600050610280511461075e57600080fd5b61014080600060c052602060c020602082510161012060006003818352015b82610120516020021115610790576107b2565b61012051602002850151610120518501555b815160010180835281141561077d575b5050505050506101c080600160c052602060c020602082510161012060006002818352015b826101205160200211156107ea5761080c565b61012051602002850151610120518501555b81516001018083528114156107d7575b505050505050005b6306fdde0360005114156108c857341561082d57600080fd5b60008060c052602060c020610180602082540161012060006003818352015b8261012051602002111561085f57610881565b61012051850154610120516020028501525b815160010180835281141561084c575b50505050505061018051806101a001818260206001820306601f82010390500336823750506020610160526040610180510160206001820306601f8201039050610160f350005b6395d89b41600051141561097c5734156108e157600080fd5b60018060c052602060c020610180602082540161012060006002818352015b8261012051602002111561091357610935565b61012051850154610120516020028501525b8151600101808352811415610900575b50505050505061018051806101a001818260206001820306601f82010390500336823750506020610160526040610180510160206001820306601f8201039050610160f350005b6370a0823160005114156109c357341561099557600080fd5b60043560205181106109a657600080fd5b50600260043560e05260c052604060c0205460005260206000f350005b63dd62ed3e6000511415610a2a5734156109dc57600080fd5b60043560205181106109ed57600080fd5b5060243560205181106109ff57600080fd5b50600360043560e05260c052604060c02060243560e05260c052604060c0205460005260206000f350005b6318160ddd6000511415610a51573415610a4357600080fd5b60045460005260206000f350005b63075461726000511415610a78573415610a6a57600080fd5b60055460005260206000f350005b5b60006000fd5b6101f6610c75036101f66000396101f6610c75036000f3"
}