{
  "address": "0x1f7b8c41ed42d9c22Fc07Ce2D064327496fE1cD0",
  "abi": [
    {
      "name": "TokenExchange",
      "inputs": [
        {
          "type": "address",
          "name": "buyer",
          "indexed": true
        },
        {
          "type": "int128",
          "name": "sold_id",
          "indexed": false
        },
        {
          "type": "uint256",
          "name": "tokens_sold",
          "indexed": false
        },
        {
          "type": "int128",
          "name": "bought_id",
          "indexed": false
        },
        {
          "type": "uint256",
          "name": "tokens_bought",
          "indexed": false
        }
      ],
      "anonymous": false,
      "type": "event"
    },
    {
      "name": "AddLiquidity",
      "inputs": [
        {
          "type": "address",
          "name": "provider",
          "indexed": true
        },
        {
          "type": "uint256[3]",
          "name": "token_amounts",
          "indexed": false
        },
        {
          "type": "uint256[3]",
          "name": "fees",
          "indexed": false
        },
        {
          "type": "uint256",
          "name": "invariant",
          "indexed": false
        },
        {
          "type": "uint256",
          "name": "token_supply",
          "indexed": false
        }
      ],
      "anonymous": false,
      "type": "event"
    },
    {
      "name": "RemoveLiquidity",
      "inputs": [
        {
          "type": "address",
          "name": "provider",
          "indexed": true
        },
        {
          "type": "uint256[3]",
          "name": "token_amounts",
          "indexed": false
        },
        {
          "type": "uint256[3]",
          "name": "fees",
          "indexed": false
        },
        {
          "type": "uint256",
          "name": "token_supply",
          "indexed": false
        }
      ],
      "anonymous": false,
      "type": "event"
    },
    {
      "name": "RemoveLiquidityOne",
      "inputs": [
        {
          "type": "address",
          "name": "provider",
          "indexed": true
        },
        {
          "type": "uint256",
          "name": "token_amount",
          "indexed": false
        },
        {
          "type": "uint256",
          "name": "coin_amount",
          "indexed": false
        }
      ],
      "anonymous": false,
      "type": "event"
    },
    {
      "name": "RemoveLiquidityImbalance",
      "inputs": [
        {
          "type": "address",
          "name": "provider",
          "indexed": true
        },
        {
          "type": "uint256[3]",
          "name": "token_amounts",
          "indexed": false
        },
        {
          "type": "uint256[3]",
          "name": "fees",
          "indexed": false
        },
        {
          "type": "uint256",
          "name": "invariant",
          "indexed": false
        },
        {
          "type": "uint256",
          "name": "token_supply",
          "indexed": false
        }
      ],
      "anonymous": false,
      "type": "event"
    },
    {
      "name": "CommitNewAdmin",
      "inputs": [
        {
          "type": "uint256",
          "name": "deadline",
          "indexed": true
        },
        {
          "type": "address",
          "name": "admin",
          "indexed": true
        }
      ],
      "anonymous": false,
      "type": "event"
    },
    {
      "name": "NewAdmin",
      "inputs": [
        {
          "type": "address",
          "name": "admin",
          "indexed": true
        }
      ],
      "anonymous": false,
      "type": "event"
    },
    {
      "name": "CommitNewFee",
      "inputs": [
        {
          "type": "uint256",
          "name": "deadline",
          "indexed": true
        },
        {
          "type": "uint256",
          "name": "fee",
          "indexed": false
        },
        {
          "type": "uint256",
          "name": "protocol_fee",
          "indexed": false
        }
      ],
      "anonymous": false,
      "type": "event"
    },
    {
      "name": "NewFee",
      "inputs": [
        {
          "type": "uint256",
          "name": "fee",
          "indexed": false
        },
        {
          "type": "uint256",
          "name": "protocol_fee",
          "indexed": false
        }
      ],
      "anonymous": false,
      "type": "event"
    },
    {
      "name": "RampA",
      "inputs": [
        {
          "type": "uint256",
          "name": "old_A",
          "indexed": false
        },
        {
          "type": "uint256",
          "name": "new_A",
          "indexed": false
        },
        {
          "type": "uint256",
          "name": "initial_time",
          "indexed": false
        },
        {
          "type": "uint256",
          "name": "future_time",
          "indexed": false
        }
      ],
      "anonymous": false,
      "type": "event"
    },
    {
      "name": "StopRampA",
      "inputs": [
        {
          "type": "uint256",
          "name": "A",
          "indexed": false
        },
        {
          "type": "uint256",
          "name": "t",
          "indexed": false
        }
      ],
      "anonymous": false,
      "type": "event"
    },
    {
      "outputs": [],
      "inputs": [
        {
          "type": "address",
          "name": "_owner"
        },
        {
          "type": "address",
          "name": "_fee_receiver"
        },
        {
          "type": "address[3]",
          "name": "_coins"
        },
        {
          "type": "address",
          "name": "_pool_token"
        },
        {
          "type": "uint256",
          "name": "_A"
        },
        {
          "type": "uint256",
          "name": "_fee"
        },
        {
          "type": "uint256",
          "name": "_protocol_fee"
        }
      ],
      "stateMutability": "nonpayable",
      "type": "constructor"
    },
    {
      "name": "A",
      "outputs": [
        {
          "type": "uint256",
          "name": ""
        }
      ],
      "inputs": [],
      "stateMutability": "view",
      "type": "function",
      "gas": 5227
    },
    {
      "name": "get_virtual_price",
      "outputs": [
        {
          "type": "uint256",
          "name": ""
        }
      ],
      "inputs": [],
      "stateMutability": "view",
      "type": "function",
      "gas": 1133537
    },
    {
      "name": "calc_token_amount",
      "outputs": [
        {
          "type": "uint256",
          "name": ""
        }
      ],
      "inputs": [
        {
          "type": "uint256[3]",
          "name": "amounts"
        },
        {
          "type": "bool",
          "name": "deposit"
        }
      ],
      "stateMutability": "view",
      "type": "function",
      "gas": 4508776
    },
    {
      "name": "add_liquidity",
      "outputs": [],
      "inputs": [
        {
          "type": "uint256[3]",
          "name": "amounts"
        },
        {
          "type": "uint256",
          "name": "min_mint_amount"
        }
      ],
      "stateMutability": "nonpayable",
      "type": "function",
      "gas": 6951956
    },
    {
      "name": "get_dy",
      "outputs": [
        {
          "type": "uint256",
          "name": ""
        }
      ],
      "inputs": [
        {
          "type": "int128",
          "name": "i"
        },
        {
          "type": "int128",
          "name": "j"
        },
        {
          "type": "uint256",
          "name": "dx"
        }
      ],
      "stateMutability": "view",
      "type": "function",
      "gas": 2673791
    },
    {
      "name": "get_dy_underlying",
      "outputs": [
        {
          "type": "uint256",
          "name": ""
        }
      ],
      "inputs": [
        {
          "type": "int128",
          "name": "i"
        },
        {
          "type": "int128",
          "name": "j"
        },
        {
          "type": "uint256",
          "name": "dx"
        }
      ],
      "stateMutability": "view",
      "type": "function",
      "gas": 2673474
    },
    {
      "name": "exchange",
      "outputs": [],
      "inputs": [
        {
          "type": "int128",
          "name": "i"
        },
        {
          "type": "int128",
          "name": "j"
        },
        {
          "type": "uint256",
          "name": "dx"
        },
        {
          "type": "uint256",
          "name": "min_dy"
        }
      ],
      "stateMutability": "nonpayable",
      "type": "function",
      "gas": 2817076
    },
    {
      "name": "remove_liquidity",
      "outputs": [],
      "inputs": [
        {
          "type": "uint256",
          "name": "_amount"
        },
        {
          "type": "uint256[3]",
          "name": "min_amounts"
        }
      ],
      "stateMutability": "nonpayable",
      "type": "function",
      "gas": 192846
    },
    {
      "name": "remove_liquidity_imbalance",
      "outputs": [],
      "inputs": [
        {
          "type": "uint256[3]",
          "name": "amounts"
        },
        {
          "type": "uint256",
          "name": "max_burn_amount"
        }
      ],
      "stateMutability": "nonpayable",
      "type": "function",
      "gas": 6951851
    },
    {
      "name": "calc_withdraw_one_coin",
      "outputs": [
        {
          "type": "uint256",
          "name": ""
        }
      ],
      "inputs": [
        {
          "type": "uint256",
          "name": "_token_amount"
        },
        {
          "type": "int128",
          "name": "i"
        }
      ],
      "stateMutability": "view",
      "type": "function",
      "gas": 1102
    },
    {
      "name": "remove_liquidity_one_coin",
      "outputs": [],
      "inputs": [
        {
          "type": "uint256",
          "name": "_token_amount"
        },
        {
          "type": "int128",
          "name": "i"
        },
        {
          "type": "uint256",
          "name": "min_amount"
        }
      ],
      "stateMutability": "nonpayable",
      "type": "function",
      "gas": 4025523
    },
    {
      "name": "ramp_A",
      "outputs": [],
      "inputs": [
        {
          "type": "uint256",
          "name": "_future_A"
        },
        {
          "type": "uint256",
          "name": "_future_time"
        }
      ],
      "stateMutability": "nonpayable",
      "type": "function",
      "gas": 151919
    },
    {
      "name": "stop_ramp_A",
      "outputs": [],
      "inputs": [],
      "stateMutability": "nonpayable",
      "type": "function",
      "gas": 148637
    },
    {
      "name": "commit_new_fee",
      "outputs": [],
      "inputs": [
        {
          "type": "uint256",
          "name": "new_fee"
        },
        {
          "type": "uint256",
          "name": "new_protocol_fee"
        }
      ],
      "stateMutability": "nonpayable",
      "type": "function",
      "gas": 110461
    },
    {
      "name": "apply_new_fee",
      "outputs": [],
      "inputs": [],
      "stateMutability": "nonpayable",
      "type": "function",
      "gas": 97242
    },
    {
      "name": "revert_new_parameters",
      "outputs": [],
      "inputs": [],
      "stateMutability": "nonpayable",
      "type": "function",
      "gas": 21895
    },
    {
      "name": "commit_transfer_ownership",
      "outputs": [],
      "inputs": [
        {
          "type": "address",
          "name": "_owner"
        }
      ],
      "stateMutability": "nonpayable",
      "type": "function",
      "gas": 74572
    },
    {
      "name": "apply_transfer_ownership",
      "outputs": [],
      "inputs": [],
      "stateMutability": "nonpayable",
      "type": "function",
      "gas": 60710
    },
    {
      "name": "revert_transfer_ownership",
      "outputs": [],
      "inputs": [],
      "stateMutability": "nonpayable",
      "type": "function",
      "gas": 21985
    },
    {
      "name": "protocol_balances",
      "outputs": [
        {
          "type": "uint256",
          "name": ""
        }
      ],
      "inputs": [
        {
          "type": "uint256",
          "name": "i"
        }
      ],
      "stateMutability": "view",
      "type": "function",
      "gas": 3481
    },
    {
      "name": "withdraw_protocol_fees",
      "outputs": [],
      "inputs": [],
      "stateMutability": "nonpayable",
      "type": "function",
      "gas": 23012
    },
    {
      "name": "kill_me",
      "outputs": [],
      "inputs": [],
      "stateMutability": "nonpayable",
      "type": "function",
      "gas": 37968
    },
    {
      "name": "unkill_me",
      "outputs": [],
      "inputs": [],
      "stateMutability": "nonpayable",
      "type": "function",
      "gas": 22105
    },
    {
      "name": "coins",
      "outputs": [
        {
          "type": "address",
          "name": ""
        }
      ],
      "inputs": [
        {
          "type": "uint256",
          "name": "arg0"
        }
      ],
      "stateMutability": "view",
      "type": "function",
      "gas": 2190
    },
    {
      "name": "balances",
      "outputs": [
        {
          "type": "uint256",
          "name": ""
        }
      ],
      "inputs": [
        {
          "type": "uint256",
          "name": "arg0"
        }
      ],
      "stateMutability": "view",
      "type": "function",
      "gas": 2220
    },
    {
      "name": "fee",
      "outputs": [
        {
          "type": "uint256",
          "name": ""
        }
      ],
      "inputs": [],
      "stateMutability": "view",
      "type": "function",
      "gas": 2141
    },
    {
      "name": "protocol_fee",
      "outputs": [
        {
          "type": "uint256",
          "name": ""
        }
      ],
      "inputs": [],
      "stateMutability": "view",
      "type": "function",
      "gas": 2171
    },
    {
      "name": "owner",
      "outputs": [
        {
          "type": "address",
          "name": ""
        }
      ],
      "inputs": [],
      "stateMutability": "view",
      "type": "function",
      "gas": 2201
    },
    {
      "name": "fee_receiver",
      "outputs": [
        {
          "type": "address",
          "name": ""
        }
      ],
      "inputs": [],
      "stateMutability": "view",
      "type": "function",
      "gas": 2231
    },
    {
      "name": "initial_A",
      "outputs": [
        {
          "type": "uint256",
          "name": ""
        }
      ],
      "inputs": [],
      "stateMutability": "view",
      "type": "function",
      "gas": 2261
    },
    {
      "name": "future_A",
      "outputs": [
        {
          "type": "uint256",
          "name": ""
        }
      ],
      "inputs": [],
      "stateMutability": "view",
      "type": "function",
      "gas": 2291
    },
    {
      "name": "initial_A_time",
      "outputs": [
        {
          "type": "uint256",
          "name": ""
        }
      ],
      "inputs": [],
      "stateMutability": "view",
      "type": "function",
      "gas": 2321
    },
    {
      "name": "future_A_time",
      "outputs": [
        {
          "type": "uint256",
          "name": ""
        }
      ],
      "inputs": [],
      "stateMutability": "view",
      "type": "function",
      "gas": 2351
    },
    {
      "name": "admin_actions_deadline",
      "outputs": [
        {
          "type": "uint256",
          "name": ""
        }
      ],
      "inputs": [],
      "stateMutability": "view",
      "type": "function",
      "gas": 2381
    },
    {
      "name": "transfer_ownership_deadline",
      "outputs": [
        {
          "type": "uint256",
          "name": ""
        }
      ],
      "inputs": [],
      "stateMutability": "view",
      "type": "function",
      "gas": 2411
    },
    {
      "name": "future_fee",
      "outputs": [
        {
          "type": "uint256",
          "name": ""
        }
      ],
      "inputs": [],
      "stateMutability": "view",
      "type": "function",
      "gas": 2441
    },
    {
      "name": "future_protocol_fee",
      "outputs": [
        {
          "type": "uint256",
          "name": ""
        }
      ],
      "inputs": [],
      "stateMutability": "view",
      "type": "function",
      "gas": 2471
    },
    {
      "name": "future_owner",
      "outputs": [
        {
          "type": "address",
          "name": ""
        }
      ],
      "inputs": [],
      "stateMutability": "view",
      "type": "function",
      "gas": 2501
    }
  ],
  "transactionHash": "0xaeb3956f3d0d8bab090f6fa0b9d60b56ebf2fb4cf084325e11bfb1a408079361",
  "args": [
    "0x25dddc42dbCf3b018515523D08dB69B528e60a92",
    "0xE06d905B1C3fFd7CA6e66c831313c19E4a2fA442",
    [
      "0xb4b8F8Cbd9eD3F9866bEcbe4B6e4Cf711563bFc0",
      "0xdd1d0043f16E5E4056F7cd6c172D7e973E431af9",
      "0xE22b022cf5AB1a7c739651453b0b5cEE2F7f1164"
    ],
    "0xf95A907E599d720A22e9688238aFf1C3d2904bFb",
    100,
    4000000,
    10000000000
  ],
  "bytecode": "0x740100000000000000000000000000000000000000006020526f7fffffffffffffffffffffffffffffff6040527fffffffffffffffffffffffffffffffff8000000000000000000000000000000060605274012a05f1fffffffffffffffffffffffffdabf41c006080527ffffffffffffffffffffffffed5fa0e000000000000000000000000000000000060a0526101206152f76101403934156100a257600080fd5b60206152f760c03960c05160205181106100bb57600080fd5b50602060206152f70160c03960c05160205181106100d857600080fd5b50602060406152f70160c03960c05160205181106100f557600080fd5b50602060606152f70160c03960c051602051811061011257600080fd5b50602060806152f70160c03960c051602051811061012f57600080fd5b50602060a06152f70160c03960c051602051811061014c57600080fd5b5061026060006003818352015b6000610180610260516003811061016f57600080fd5b60200201511861017e57600080fd5b5b8151600101808352811415610159575b5050600060c052602060c020610180805182558060200151600183015580604001516002830155505061020051600755610200516008556102205160025561024051600355610140516004556101605160055542624f1a008181830110156101f657600080fd5b808201905090506011556101e0516006556152df56600436101561000d576150cd565b600035601c52740100000000000000000000000000000000000000006020526f7fffffffffffffffffffffffffffffff6040527fffffffffffffffffffffffffffffffff8000000000000000000000000000000060605274012a05f1fffffffffffffffffffffffffdabf41c006080527ffffffffffffffffffffffffed5fa0e000000000000000000000000000000000060a052600015610244575b61014052600a54610160526008546101805261016051421015610231576007546101c0526009546101e0526101c05161018051111561018a576101c051610180516101c051808210156100fb57600080fd5b80820390509050426101e0518082101561011457600080fd5b80820390509050808202821582848304141761012f57600080fd5b80905090509050610160516101e0518082101561014b57600080fd5b80820390509050808061015d57600080fd5b82049050905081818301101561017257600080fd5b8082019050905060005260005161014051565061022c565b6101c0516101c05161018051808210156101a357600080fd5b80820390509050426101e051808210156101bc57600080fd5b8082039050905080820282158284830414176101d757600080fd5b80905090509050610160516101e051808210156101f357600080fd5b80820390509050808061020557600080fd5b8204905090508082101561021857600080fd5b808203905090506000526000516101405156505b610242565b610180516000526000516101405156505b005b63f446c1d0600051141561027957341561025d57600080fd5b600658016100a9565b610140526101405160005260206000f350005b600015610399575b61014052610160670de0b6b3a764000081526c0c9f2c9cd04674edea4000000081602001526c0c9f2c9cd04674edea400000008160400152506101c060006003818352015b6101606101c051600381106102da57600080fd5b60200201516101c051600381106102f057600080fd5b600160c052602060c0200154808202821582848304141761031057600080fd5b80905090509050670de0b6b3a7640000808061032b57600080fd5b8204905090506101606101c0516003811061034557600080fd5b60200201525b81516001018083528114156102c6575b505060606101e0525b60006101e05111151561037657610392565b60206101e05103610160015160206101e051036101e052610364565b6101405156005b6000156104c1575b6101a0526101405261016052610180526101c0670de0b6b3a764000081526c0c9f2c9cd04674edea4000000081602001526c0c9f2c9cd04674edea4000000081604001525061022060006003818352015b6101c0610220516003811061040657600080fd5b6020020151610140610220516003811061041f57600080fd5b6020020151808202821582848304141761043857600080fd5b80905090509050670de0b6b3a7640000808061045357600080fd5b8204905090506101c0610220516003811061046d57600080fd5b60200201525b81516001018083528114156103f2575b50506060610240525b60006102405111151561049e576104ba565b602061024051036101c00151602061024051036102405261048c565b6101a05156005b6000156107af575b6101c0526101405261016052610180526101a05260006101e05261022060006003818352015b602061022051026101400151610200526101e080516102005181818301101561051757600080fd5b808201905090508152505b81516001018083528114156104ef575b50506101e051151561054d5760006000526000516101c05156505b6000610260526101e051610280526101a0516003808202821582848304141761057557600080fd5b809050905090506102a0526102c0600060ff818352015b610280516102e05261032060006003818352015b602061032051026101400151610300526102e0516102805180820282158284830414176105cc57600080fd5b8090509050905061030051600380820282158284830414176105ed57600080fd5b8090509050905080806105ff57600080fd5b8204905090506102e0525b81516001018083528114156105a0575b505061028051610260526102a0516101e051808202821582848304141761064057600080fd5b809050905090506102e0516003808202821582848304141761066157600080fd5b8090509050905081818301101561067757600080fd5b8082019050905061028051808202821582848304141761069657600080fd5b809050905090506102a0516001808210156106b057600080fd5b808203905090506102805180820282158284830414176106cf57600080fd5b8090509050905060046102e05180820282158284830414176106f057600080fd5b8090509050905081818301101561070657600080fd5b80820190509050808061071857600080fd5b820490509050610280526102605161028051111561075f57600161028051610260518082101561074757600080fd5b8082039050905011151561075a5761079b565b61078a565b600161026051610280518082101561077657600080fd5b808203905090501115156107895761079b565b5b5b815160010180835281141561058c575b5050610280516000526000516101c0515650005b60001561090d575b6101c0526101405261016052610180526101a052610140610420525b610420515160206104205101610420526104206104205110156107f5576107d3565b610440610140610300525b6103005151602061030051016103005261030061030051101561082257610800565b6103206101408051825280602001518260200152806040015182604001525050610360516103405161032051600658016103a1565b6103c0526103e052610400526102e0610300525b610300515260206103005103610300526101406103005110151561088e5761086b565b6103c080518252806020015182602001528060400151826040015250506101a0516104a0526104a051610480516104605161044051600658016104c9565b61050052610400610420525b61042051526020610420510361042052610140610420511015156108fb576108d8565b610500516000526000516101c0515650005b63bb7b8b806000511415610af857341561092657600080fd5b6101406102e0525b6102e0515160206102e051016102e0526102e06102e05110156109505761092e565b6103006101405161016051610180516101a0516101c0516101e0516102005160065801610281565b610240526102605261028052610200526101e0526101c0526101a05261018052610160526101405261024080518252806020015182602001528060400151826040015250506101406102a0525b6102a0515160206102a051016102a0526102a06102a05110156109e7576109c5565b600658016100a9565b6102c0526102806102a0525b6102a0515260206102a051036102a0526101406102a051101515610a1f576109fc565b6102c0516103605261036051610340516103205161030051600658016104c9565b6103c0526102c06102e0525b6102e0515260206102e051036102e0526101406102e051101515610a6f57610a4c565b6103c05161014052602061046060046318160ddd6104005261041c6006545afa610a9857600080fd5b601f3d11610aa557600080fd5b600050610460516103e05261014051670de0b6b3a76400008082028215828483041417610ad157600080fd5b809050905090506103e0518080610ae757600080fd5b82049050905060005260206000f350005b633883e1196000511415610e46573415610b1157600080fd5b60643560028110610b2157600080fd5b5061014060018060c052602060c02054825260018160c052602060c0200154826020015260028160c052602060c0200154826040015250506101405161016051610180516101a051600658016100a9565b6101e0526101a0526101805261016052610140526101e0516101a0526101405161016051610180516101a0516101c0516101e0516102005161024061014080518252806020015182602001528060400151826040015250506101a0516102a0526102a051610280516102605161024051600658016107b7565b61030052610200526101e0526101c0526101a052610180526101605261014052610300516102005261032060006003818352015b60643515610c77576101406103205160038110610c3b57600080fd5b60200201805160046103205160038110610c5457600080fd5b6020020135818183011015610c6857600080fd5b80820190509050815250610cc1565b6101406103205160038110610c8b57600080fd5b60200201805160046103205160038110610ca457600080fd5b602002013580821015610cb657600080fd5b808203905090508152505b5b8151600101808352811415610c1f575b5050610140610360525b61036051516020610360510161036052610360610360511015610cfe57610cdc565b61038061014080518252806020015182602001528060400151826040015250506101a0516103e0526103e0516103c0516103a05161038051600658016107b7565b61044052610340610360525b6103605152602061036051036103605261014061036051101515610d6e57610d4b565b610440516103405260206104e060046318160ddd6104805261049c6006545afa610d9757600080fd5b601f3d11610da457600080fd5b6000506104e0516104605260006105005260643515610de257610340516102005180821015610dd257600080fd5b8082039050905061050052610e03565b610200516103405180821015610df757600080fd5b80820390509050610500525b61050051610460518082028215828483041417610e1f57600080fd5b80905090509050610200518080610e3557600080fd5b82049050905060005260206000f350005b634515cef360005114156117ec5762ffffff5415610e6357600080fd5b600162ffffff553415610e7557600080fd5b60105415610e8257600080fd5b6060366101403760025460038082028215828483041417610ea257600080fd5b8090509050905060088080610eb657600080fd5b8204905090506101a0526003546101c0526101405161016051610180516101a0516101c0516101e051600658016100a9565b610220526101e0526101c0526101a052610180526101605261014052610220516101e05260206102c060046318160ddd6102605261027c6006545afa610f2d57600080fd5b601f3d11610f3a57600080fd5b6000506102c0516102405260006102e05261030060018060c052602060c02054825260018160c052602060c0200154826020015260028160c052602060c020015482604001525050600061024051111561103157610140610360525b61036051516020610360510161036052610360610360511015610fb857610f96565b61038061030080518252806020015182602001528060400151826040015250506101e0516103e0526103e0516103c0516103a05161038051600658016107b7565b61044052610340610360525b610360515260206103605103610360526101406103605110151561102857611005565b610440516102e0525b61046061030080518252806020015182602001528060400151826040015250506104c060006003818352015b60046104c0516003811061107057600080fd5b60200201356104e0526102405115156110945760006104e0511161109357600080fd5b5b6104c051600381106110a557600080fd5b600060c052602060c02001546105005260006104e05111156112265760006004610580527f23b872dd000000000000000000000000000000000000000000000000000000006105a0526105806004806020846105e001018260208501600060045af1505080518201915050336020826105e0010152602081019050306020826105e001015260208101905060046104c0516003811061114357600080fd5b60200201356020826105e0010152602081019050806105e0526105e090508051602001806106a08284600060045af161117b57600080fd5b505060206107806106a0516106c06000610500515af161119a57600080fd5b60203d808211156111ab57806111ad565b815b90509050610760526107608051602001806105208284600060045af16111d257600080fd5b50506000610520511115611225576105208060200151600082518060209013156111fb57600080fd5b809190121561120957600080fd5b806020036101000a8204905090509050151561122457600080fd5b5b5b6103006104c0516003811061123a57600080fd5b60200201516104e05181818301101561125257600080fd5b808201905090506104606104c0516003811061126d57600080fd5b60200201525b815160010180835281141561105d575b50506101406107e0525b6107e0515160206107e051016107e0526107e06107e05110156112af5761128d565b61080061046080518252806020015182602001528060400151826040015250506101e0516108605261086051610840516108205161080051600658016107b7565b6108c0526107c06107e0525b6107e0515260206107e051036107e0526101406107e05110151561131f576112fc565b6108c0516107c0526102e0516107c0511161133957600080fd5b6107c0516108e05260006102405111156116335761090060006003818352015b6107c051610300610900516003811061137157600080fd5b6020020151808202821582848304141761138a57600080fd5b809050905090506102e05180806113a057600080fd5b8204905090506109205260006109405261046061090051600381106113c457600080fd5b602002015161092051111561140d576109205161046061090051600381106113eb57600080fd5b6020020151808210156113fd57600080fd5b8082039050905061094052611443565b610460610900516003811061142157600080fd5b6020020151610920518082101561143757600080fd5b80820390509050610940525b6101a05161094051808202821582848304141761145f57600080fd5b809050905090506402540be400808061147757600080fd5b820490509050610140610900516003811061149157600080fd5b602002015261046061090051600381106114aa57600080fd5b602002015161014061090051600381106114c357600080fd5b60200201516101c05180820282158284830414176114e057600080fd5b809050905090506402540be40080806114f857600080fd5b8204905090508082101561150b57600080fd5b80820390509050610900516003811061152357600080fd5b600160c052602060c0200155610460610900516003811061154357600080fd5b602002018051610140610900516003811061155d57600080fd5b60200201518082101561156f57600080fd5b808203905090508152505b8151600101808352811415611359575b5050610140610960525b610960515160206109605101610960526109006109605110156115b657611594565b61098061046080518252806020015182602001528060400151826040015250506101e0516109e0526109e0516109c0516109a05161098051600658016107b7565b610a40526108e0610960525b610960515260206109605103610960526101406109605110151561162657611603565b610a40516108e05261165b565b600160c052602060c02061046080518255806020015160018301558060400151600283015550505b6000610a6052610240511515611678576107c051610a60526116cd565b610240516108e0516102e0518082101561169157600080fd5b8082039050905080820282158284830414176116ac57600080fd5b809050905090506102e05180806116c257600080fd5b820490509050610a60525b6308c379a0610a80526020610aa0526014610ac0527f536c697070616765207363726577656420796f75000000000000000000000000610ae052610ac050606435610a6051101561171f576064610a9cfd5b6020610bc060446340c10f19610b205233610b4052610a6051610b6052610b3c60006006545af161174f57600080fd5b601f3d1161175c57600080fd5b600050610bc050600435610be052602435610c0052604435610c205261014051610c405261016051610c605261018051610c80526107c051610ca05261024051610a60518181830110156117af57600080fd5b80820190509050610cc052337f423f6495a08fc652425cf4ed0d1f9e37e571d9b9529b1c1c23cce780b2e7df0d610100610be0a2600062ffffff55005b600015611c63575b610200526101405261016052610180526101a0526101c0526101e05261016051610140511861182257600080fd5b600061016051121561183357600080fd5b6003610160511261184357600080fd5b600061014051121561185457600080fd5b6003610140511261186457600080fd5b6101405161016051610180516101a0516101c0516101e0516102005161022051600658016100a9565b6102605261022052610200526101e0526101c0526101a05261018052610160526101405261026051610220526101406102a0525b6102a0515160206102a051016102a0526102a06102a05110156118e3576118c1565b6102c06101a08051825280602001518260200152806040015182604001525050610220516103205261032051610300516102e0516102c051600658016104c9565b610380526102806102a0525b6102a0515260206102a051036102a0526101406102a05110151561195357611930565b6103805161028052610280516103a05260006103c052610220516003808202821582848304141761198357600080fd5b809050905090506103e05260006104005261042060006003818352015b610140516104205114156119bb5761018051610400526119f1565b610160516104205118156119eb576101a061042051600381106119dd57600080fd5b6020020151610400526119f0565b611a6d565b5b6103c0805161040051818183011015611a0957600080fd5b808201905090508152506103a051610280518082028215828483041417611a2f57600080fd5b809050905090506104005160038082028215828483041417611a5057600080fd5b809050905090508080611a6257600080fd5b8204905090506103a0525b81516001018083528114156119a0575b50506103a051610280518082028215828483041417611a9b57600080fd5b809050905090506103e05160038082028215828483041417611abc57600080fd5b809050905090508080611ace57600080fd5b8204905090506103a0526103c051610280516103e0518080611aef57600080fd5b820490509050818183011015611b0457600080fd5b808201905090506104405260006104605261028051610480526104a0600060ff818352015b610480516104605261048051610480518082028215828483041417611b4d57600080fd5b809050905090506103a051818183011015611b6757600080fd5b808201905090506002610480518082028215828483041417611b8857600080fd5b8090509050905061044051818183011015611ba257600080fd5b808201905090506102805180821015611bba57600080fd5b808203905090508080611bcc57600080fd5b8204905090506104805261046051610480511115611c13576001610480516104605180821015611bfb57600080fd5b80820390509050111515611c0e57611c4f565b611c3e565b6001610460516104805180821015611c2a57600080fd5b80820390509050111515611c3d57611c4f565b5b5b8151600101808352811415611b29575b505061048051600052600051610200515650005b635e0d443f6000511415611f95573415611c7c57600080fd5b60605160043580604051901315611c9257600080fd5b8091901215611ca057600080fd5b5060605160243580604051901315611cb757600080fd5b8091901215611cc557600080fd5b50610140670de0b6b3a764000081526c0c9f2c9cd04674edea4000000081602001526c0c9f2c9cd04674edea400000008160400152506101a06101405161016051610180516101a0516101c0516101e05160065801610281565b6102205261024052610260526101e0526101c0526101a05261018052610160526101405261022080518252806020015182602001528060400151826040015250506101a060043560038110611d7357600080fd5b602002015160443561014060043560038110611d8e57600080fd5b60200201518082028215828483041417611da757600080fd5b80905090509050670de0b6b3a76400008080611dc257600080fd5b820490509050818183011015611dd757600080fd5b80820190509050610280526101406102c0525b6102c0515160206102c051016102c0526102c06102c0511015611e0c57611dea565b6004356102e0526024356103005261028051610320526103406101a0805182528060200151826020015280604001518260400152505061038051610360516103405161032051610300516102e051600658016117f4565b6103e0526102a06102c0525b6102c0515260206102c051036102c0526101406102c051101515611e9257611e6f565b6103e0516102a0526101a060243560038110611ead57600080fd5b60200201516102a05180821015611ec357600080fd5b80820390509050600180821015611ed957600080fd5b80820390509050670de0b6b3a76400008082028215828483041417611efd57600080fd5b8090509050905061014060243560038110611f1757600080fd5b60200201518080611f2757600080fd5b82049050905061040052600254610400518082028215828483041417611f4c57600080fd5b809050905090506402540be4008080611f6457600080fd5b82049050905061042052610400516104205180821015611f8357600080fd5b8082039050905060005260206000f350005b6307211ef7600051141561225a573415611fae57600080fd5b60605160043580604051901315611fc457600080fd5b8091901215611fd257600080fd5b5060605160243580604051901315611fe957600080fd5b8091901215611ff757600080fd5b5061014061014051610160516101805160065801610281565b6101c0526101e052610200526101805261016052610140526101c080518252806020015182602001528060400151826040015250506102206001815264e8d4a51000816020015264e8d4a510008160400152506101406004356003811061207657600080fd5b60200201516044356102206004356003811061209157600080fd5b602002015180820282158284830414176120aa57600080fd5b809050905090508181830110156120c057600080fd5b80820190509050610280526101406102c0525b6102c0515160206102c051016102c0526102c06102c05110156120f5576120d3565b6004356102e052602435610300526102805161032052610340610140805182528060200151826020015280604001518260400152505061038051610360516103405161032051610300516102e051600658016117f4565b6103e0526102a06102c0525b6102c0515260206102c051036102c0526101406102c05110151561217b57612158565b6103e0516102a0526101406024356003811061219657600080fd5b60200201516102a051808210156121ac57600080fd5b808203905090506001808210156121c257600080fd5b80820390509050610220602435600381106121dc57600080fd5b602002015180806121ec57600080fd5b8204905090506104005260025461040051808202821582848304141761221157600080fd5b809050905090506402540be400808061222957600080fd5b8204905090506104205261040051610420518082101561224857600080fd5b8082039050905060005260206000f350005b633df021246000511415612afb5762ffffff541561227757600080fd5b600162ffffff55341561228957600080fd5b6060516004358060405190131561229f57600080fd5b80919012156122ad57600080fd5b50606051602435806040519013156122c457600080fd5b80919012156122d257600080fd5b50601054156122e057600080fd5b610140670de0b6b3a764000081526c0c9f2c9cd04674edea4000000081602001526c0c9f2c9cd04674edea400000008160400152506101a060018060c052602060c02054825260018160c052602060c0200154826020015260028160c052602060c0200154826040015250506102006101405161016051610180516101a0516101c0516101e0516102005161022051610240516102806101a080518252806020015182602001528060400151826040015250506102c0516102a05161028051600658016103a1565b6103205261034052610360526102405261022052610200526101e0526101c0526101a0526101805261016052610140526103208051825280602001518260200152806040015182604001525050604435610380526004356003811061240c57600080fd5b600060c052602060c02001546103a05260006004610420527f23b872dd000000000000000000000000000000000000000000000000000000006104405261042060048060208461048001018260208501600060045af15050805182019150503360208261048001015260208101905030602082610480010152602081019050604435602082610480010152602081019050806104805261048090508051602001806105408284600060045af16124c157600080fd5b505060206106206105405161056060006103a0515af16124e057600080fd5b60203d808211156124f157806124f3565b815b90509050610600526106008051602001806103c08284600060045af161251857600080fd5b505060006103c051111561256b576103c080602001516000825180602090131561254157600080fd5b809190121561254f57600080fd5b806020036101000a8204905090509050151561256a57600080fd5b5b6102006004356003811061257e57600080fd5b6020020151610380516101406004356003811061259a57600080fd5b602002015180820282158284830414176125b357600080fd5b80905090509050670de0b6b3a764000080806125ce57600080fd5b8204905090508181830110156125e357600080fd5b80820190509050610660526101406106a0525b6106a0515160206106a051016106a0526106a06106a0511015612618576125f6565b6004356106c0526024356106e05261066051610700526107206102008051825280602001518260200152806040015182604001525050610760516107405161072051610700516106e0516106c051600658016117f4565b6107c0526106806106a0525b6106a0515260206106a051036106a0526101406106a05110151561269e5761267b565b6107c05161068052610200602435600381106126b957600080fd5b602002015161068051808210156126cf57600080fd5b808203905090506001808210156126e557600080fd5b808203905090506107e0526107e051600254808202821582848304141761270b57600080fd5b809050905090506402540be400808061272357600080fd5b820490509050610800526107e051610800518082101561274257600080fd5b80820390509050670de0b6b3a7640000808202821582848304141761276657600080fd5b809050905090506101406024356003811061278057600080fd5b6020020151808061279057600080fd5b8204905090506107e0526308c379a061082052602061084052602e610860527f45786368616e676520726573756c74656420696e20666577657220636f696e73610880527f207468616e2065787065637465640000000000000000000000000000000000006108a052610860506064356107e051101561281157608461083cfd5b61080051600354808202821582848304141761282c57600080fd5b809050905090506402540be400808061284457600080fd5b8204905090506108e0526108e051670de0b6b3a7640000808202821582848304141761286f57600080fd5b809050905090506101406024356003811061288957600080fd5b6020020151808061289957600080fd5b8204905090506108e0526101a0600435600381106128b657600080fd5b6020020151610380518181830110156128ce57600080fd5b80820190509050600435600381106128e557600080fd5b600160c052602060c02001556101a06024356003811061290457600080fd5b60200201516107e0518082101561291a57600080fd5b808203905090506108e0518082101561293257600080fd5b808203905090506024356003811061294957600080fd5b600160c052602060c020015560006004610900527fa9059cbb000000000000000000000000000000000000000000000000000000006109205261090060048060208461096001018260208501600060045af1505080518201915050336020826109600101526020810190506107e05160208261096001015260208101905080610960526109609050805160200180610a008284600060045af16129eb57600080fd5b50506020610ac0610a0051610a20600060243560038110612a0b57600080fd5b600060c052602060c02001545af1612a2257600080fd5b60203d80821115612a335780612a35565b815b90509050610aa052610aa08051602001806103c08284600060045af1612a5a57600080fd5b505060006103c0511115612aad576103c0806020015160008251806020901315612a8357600080fd5b8091901215612a9157600080fd5b806020036101000a82049050905090501515612aac57600080fd5b5b600435610b0052604435610b2052602435610b40526107e051610b6052337f8b3e96f2b889fa771c53c981b40daf005f63f637f1869f707052d15a3dd971406080610b00a2600062ffffff55005b63ecb586a56000511415612ee25762ffffff5415612b1857600080fd5b600162ffffff553415612b2a57600080fd5b60206101c060046318160ddd6101605261017c6006545afa612b4b57600080fd5b601f3d11612b5857600080fd5b6000506101c051610140526060366101e037606036610240376102a060006003818352015b6102a05160038110612b8e57600080fd5b600160c052602060c02001546004358082028215828483041417612bb157600080fd5b80905090509050610140518080612bc757600080fd5b8204905090506102c0526308c379a06102e0526020610300526030610320527f5769746864726177616c20726573756c74656420696e20666577657220636f69610340527f6e73207468616e20657870656374656400000000000000000000000000000000610360526103205060246102a05160038110612c4757600080fd5b60200201356102c0511015612c5d5760846102fcfd5b6102a05160038110612c6e57600080fd5b600160c052602060c0200180546102c05180821015612c8c57600080fd5b808203905090508155506102c0516101e06102a05160038110612cae57600080fd5b602002015260006004610400527fa9059cbb000000000000000000000000000000000000000000000000000000006104205261040060048060208461046001018260208501600060045af1505080518201915050336020826104600101526020810190506102c051602082610460010152602081019050806104605261046090508051602001806105008284600060045af1612d4957600080fd5b505060206105c06105005161052060006102a05160038110612d6a57600080fd5b600060c052602060c02001545af1612d8157600080fd5b60203d80821115612d925780612d94565b815b905090506105a0526105a08051602001806103a08284600060045af1612db957600080fd5b505060006103a0511115612e0c576103a0806020015160008251806020901315612de257600080fd5b8091901215612df057600080fd5b806020036101000a82049050905090501515612e0b57600080fd5b5b5b8151600101808352811415612b7d575b505060206106a060446379cc67906106005233610620526004356106405261061c60006006545af1612e4e57600080fd5b601f3d11612e5b57600080fd5b6000506106a0506101e0516106c052610200516106e05261022051610700526102405161072052610260516107405261028051610760526101405160043580821015612ea657600080fd5b8082039050905061078052337fa49d4cf02656aebf8c771f5a8585638a2a15ee6c97cf7205d4208ed7c1df252d60e06106c0a2600062ffffff55005b639fdaea0c60005114156138335762ffffff5415612eff57600080fd5b600162ffffff553415612f1157600080fd5b60105415612f1e57600080fd5b60206101c060046318160ddd6101605261017c6006545afa612f3f57600080fd5b601f3d11612f4c57600080fd5b6000506101c0516101405260006101405118612f6757600080fd5b60025460038082028215828483041417612f8057600080fd5b8090509050905060088080612f9457600080fd5b8204905090506101e052600354610200526101405161016051610180516101a0516101c0516101e0516102005161022051600658016100a9565b6102605261022052610200526101e0526101c0526101a052610180526101605261014052610260516102205261028060018060c052602060c02054825260018160c052602060c0200154826020015260028160c052602060c0200154826040015250506102e06102808051825280602001518260200152806040015182604001525050610140610360525b6103605151602061036051016103605261036061036051101561307b57613059565b6103806102808051825280602001518260200152806040015182604001525050610220516103e0526103e0516103c0516103a05161038051600658016107b7565b61044052610340610360525b61036051526020610360510361036052610140610360511015156130eb576130c8565b610440516103405261046060006003818352015b6102e0610460516003811061311357600080fd5b6020020180516004610460516003811061312c57600080fd5b60200201358082101561313e57600080fd5b808203905090508152505b81516001018083528114156130ff575b50506101406104a0525b6104a0515160206104a051016104a0526104a06104a051101561318557613163565b6104c06102e08051825280602001518260200152806040015182604001525050610220516105205261052051610500516104e0516104c051600658016107b7565b610580526104806104a0525b6104a0515260206104a051036104a0526101406104a0511015156131f5576131d2565b61058051610480526060366105a03761060060006003818352015b61048051610280610600516003811061322857600080fd5b6020020151808202821582848304141761324157600080fd5b8090509050905061034051808061325757600080fd5b820490509050610620526000610640526102e0610600516003811061327b57600080fd5b60200201516106205111156132c457610620516102e061060051600381106132a257600080fd5b6020020151808210156132b457600080fd5b80820390509050610640526132fa565b6102e061060051600381106132d857600080fd5b602002015161062051808210156132ee57600080fd5b80820390509050610640525b6101e05161064051808202821582848304141761331657600080fd5b809050905090506402540be400808061332e57600080fd5b8204905090506105a0610600516003811061334857600080fd5b60200201526102e0610600516003811061336157600080fd5b60200201516105a0610600516003811061337a57600080fd5b602002015161020051808202821582848304141761339757600080fd5b809050905090506402540be40080806133af57600080fd5b820490509050808210156133c257600080fd5b8082039050905061060051600381106133da57600080fd5b600160c052602060c02001556102e061060051600381106133fa57600080fd5b6020020180516105a0610600516003811061341457600080fd5b60200201518082101561342657600080fd5b808203905090508152505b8151600101808352811415613210575b5050610140610680525b6106805151602061068051016106805261068061068051101561346d5761344b565b6106a06102e080518252806020015182602001528060400151826040015250506102205161070052610700516106e0516106c0516106a051600658016107b7565b61076052610660610680525b61068051526020610680510361068052610140610680511015156134dd576134ba565b61076051610660526103405161066051808210156134fa57600080fd5b8082039050905061014051808202821582848304141761351957600080fd5b8090509050905061034051808061352f57600080fd5b820490509050610780526000610780511861354957600080fd5b6107808051600181818301101561355f57600080fd5b808201905090508152506308c379a06107a05260206107c05260146107e0527f536c697070616765207363726577656420796f75000000000000000000000000610800526107e0506064356107805111156135bb5760646107bcfd5b60206108e060446379cc6790610840523361086052610780516108805261085c60006006545af16135eb57600080fd5b601f3d116135f857600080fd5b6000506108e05061090060006003818352015b60006004610900516003811061362057600080fd5b602002013518156137995760006004610980527fa9059cbb000000000000000000000000000000000000000000000000000000006109a0526109806004806020846109e001018260208501600060045af1505080518201915050336020826109e00101526020810190506004610900516003811061369d57600080fd5b60200201356020826109e0010152602081019050806109e0526109e09050805160200180610a808284600060045af16136d557600080fd5b50506020610b40610a8051610aa0600061090051600381106136f657600080fd5b600060c052602060c02001545af161370d57600080fd5b60203d8082111561371e5780613720565b815b90509050610b2052610b208051602001806109208284600060045af161374557600080fd5b505060006109205111156137985761092080602001516000825180602090131561376e57600080fd5b809190121561377c57600080fd5b806020036101000a8204905090509050151561379757600080fd5b5b5b5b815160010180835281141561360b575b5050600435610b8052602435610ba052604435610bc0526105a051610be0526105c051610c00526105e051610c205261048051610c40526101405161078051808210156137f657600080fd5b80820390509050610c6052337f173599dbf9c6ca6f7c3b590df07ae98a45d74ff54065505141e7de6c46a624c2610100610b80a2600062ffffff55005b600015613b64575b610200526101405261016052610180526101a0526101c0526101e052600061016051121561386857600080fd5b6003610160511261387857600080fd5b6101e0516102205260006102405261014051600380820282158284830414176138a057600080fd5b80905090509050610260526000610280526102a060006003818352015b610160516102a05118156138ed576101806102a051600381106138df57600080fd5b6020020151610280526138f2565b61396e565b61024080516102805181818301101561390a57600080fd5b80820190509050815250610220516101e051808202821582848304141761393057600080fd5b80905090509050610280516003808202821582848304141761395157600080fd5b80905090509050808061396357600080fd5b820490509050610220525b81516001018083528114156138bd575b5050610220516101e051808202821582848304141761399c57600080fd5b8090509050905061026051600380820282158284830414176139bd57600080fd5b8090509050905080806139cf57600080fd5b82049050905061022052610240516101e0516102605180806139f057600080fd5b820490509050818183011015613a0557600080fd5b808201905090506102c05260006102e0526101e05161030052610320600060ff818352015b610300516102e05261030051610300518082028215828483041417613a4e57600080fd5b8090509050905061022051818183011015613a6857600080fd5b808201905090506002610300518082028215828483041417613a8957600080fd5b809050905090506102c051818183011015613aa357600080fd5b808201905090506101e05180821015613abb57600080fd5b808203905090508080613acd57600080fd5b820490509050610300526102e051610300511115613b14576001610300516102e05180821015613afc57600080fd5b80820390509050111515613b0f57613b50565b613b3f565b60016102e0516103005180821015613b2b57600080fd5b80820390509050111515613b3e57613b50565b5b5b8151600101808352811415613a2a575b505061030051600052600051610200515650005b60001561422b575b6101805261014052610160526101405161016051610180516101a051600658016100a9565b6101e0526101a0526101805261016052610140526101e0516101a05260025460038082028215828483041417613bc657600080fd5b8090509050905060088080613bda57600080fd5b820490509050610200526102206001815264e8d4a51000816020015264e8d4a51000816040015250602061030060046318160ddd6102a0526102bc6006545afa613c2357600080fd5b601f3d11613c3057600080fd5b6000506103005161028052610320610140610380525b61038051516020610380510161038052610380610380511015613c6857613c46565b60065801610281565b6103a0526103c0526103e052610360610380525b6103805152602061038051036103805261014061038051101515613ca857613c85565b6103a08051825280602001518260200152806040015182604001525050610140610420525b61042051516020610420510161042052610420610420511015613cef57613ccd565b61044061032080518252806020015182602001528060400151826040015250506101a0516104a0526104a051610480516104605161044051600658016104c9565b61050052610400610420525b6104205152602061042051036104205261014061042051101515613d5f57613d3c565b61050051610400526104005161014051610400518082028215828483041417613d8757600080fd5b80905090509050610280518080613d9d57600080fd5b82049050905080821015613db057600080fd5b808203905090506105205261054061032080518252806020015182602001528060400151826040015250506101406105c0525b6105c0515160206105c051016105c0526105c06105c0511015613e0557613de3565b6101a0516105e05261016051610600526106206103208051825280602001518260200152806040015182604001525050610520516106805261068051610660516106405161062051610600516105e0516006580161383b565b6106e0526105a06105c0525b6105c0515260206105c051036105c0526101406105c051101515613e8d57613e6a565b6106e0516105a0526103206101605160038110613ea957600080fd5b60200201516105a05180821015613ebf57600080fd5b808203905090506102206101605160038110613eda57600080fd5b60200201518080613eea57600080fd5b8204905090506107005261072060006003818352015b60006107405261016051610720511415613f82576103206107205160038110613f2857600080fd5b6020020151610520518082028215828483041417613f4557600080fd5b80905090509050610400518080613f5b57600080fd5b8204905090506105a05180821015613f7257600080fd5b8082039050905061074052614001565b6103206107205160038110613f9657600080fd5b60200201516103206107205160038110613faf57600080fd5b6020020151610520518082028215828483041417613fcc57600080fd5b80905090509050610400518080613fe257600080fd5b82049050905080821015613ff557600080fd5b80820390509050610740525b610540610720516003811061401557600080fd5b6020020180516102005161074051808202821582848304141761403757600080fd5b809050905090506402540be400808061404f57600080fd5b8204905090508082101561406257600080fd5b808203905090508152505b8151600101808352811415613f00575b5050610540610160516003811061409357600080fd5b6020020151610140610780525b610780515160206107805101610780526107806107805110156140c2576140a0565b6101a0516107a052610160516107c0526107e0610540805182528060200151826020015280604001518260400152505061052051610840526108405161082051610800516107e0516107c0516107a0516006580161383b565b6108a052610760610780525b610780515260206107805103610780526101406107805110151561414a57614127565b6108a0518082101561415b57600080fd5b80820390509050610760526107605160018082101561417957600080fd5b80820390509050610220610160516003811061419457600080fd5b602002015180806141a457600080fd5b820490509050610760526108c0808080610760518152505060208101905080806107005161076051808210156141d957600080fd5b808203905090508152505060409050905060c05260c051610900525b60006109005111151561420757614223565b602061090051036108c0015160206109005103610900526141f5565b610180515650005b63cc2b27d7600051141561429f57341561424457600080fd5b6060516024358060405190131561425a57600080fd5b809190121561426857600080fd5b506004356101405260243561016052610160516101405160065801613b6c565b6101c0526101e0526101c05160005260206000f350005b631a4d01d2600051141561460a5762ffffff54156142bc57600080fd5b600162ffffff5534156142ce57600080fd5b606051602435806040519013156142e457600080fd5b80919012156142f257600080fd5b506010541561430057600080fd5b60006101405260006101605261014051610160516004356101a0526024356101c0526101c0516101a05160065801613b6c565b61022052610240526101605261014052610220805161014052602081015161016052506308c379a06102605260206102805260186102a0527f4e6f7420656e6f75676820636f696e732072656d6f76656400000000000000006102c0526102a0506044356101405110156143a857606461027cfd5b602435600381106143b857600080fd5b600160c052602060c020018054610140516101605160035480820282158284830414176143e457600080fd5b809050905090506402540be40080806143fc57600080fd5b82049050905081818301101561441157600080fd5b808201905090508082101561442557600080fd5b8082039050905081555060206103a060446379cc67906103005233610320526004356103405261031c60006006545af161445e57600080fd5b601f3d1161446b57600080fd5b6000506103a05060006004610420527fa9059cbb000000000000000000000000000000000000000000000000000000006104405261042060048060208461048001018260208501600060045af15050805182019150503360208261048001015260208101905061014051602082610480010152602081019050806104805261048090508051602001806105208284600060045af161450857600080fd5b505060206105e06105205161054060006024356003811061452857600080fd5b600060c052602060c02001545af161453f57600080fd5b60203d808211156145505780614552565b815b905090506105c0526105c08051602001806103c08284600060045af161457757600080fd5b505060006103c05111156145ca576103c08060200151600082518060209013156145a057600080fd5b80919012156145ae57600080fd5b806020036101000a820490509050905015156145c957600080fd5b5b600435610620526101405161064052337f9e96dd3b997a2a257eec4df9bb6eaf626e206df5f543bd963682d143300be3106040610620a2600062ffffff55005b633c157e6460005114156147ad57341561462357600080fd5b600454331461463157600080fd5b6009546201518081818301101561464757600080fd5b8082019050905042101561465a57600080fd5b426201518081818301101561466e57600080fd5b80820190509050602435101561468357600080fd5b61014051600658016100a9565b61018052610140526101805161014052600060043511156146b857620f4240600435106146bb565b60005b6146c457600080fd5b610140516004351015156146fd5761014051600a80820282158284830414176146ec57600080fd5b809050905090506004351115614700565b60005b1561470c576001614748565b6101405160043510156147445761014051600435600a808202821582848304141761473657600080fd5b809050905090501015614747565b60005b5b5b61475257600080fd5b6101405160075560043560085542600955602435600a55610140516101a0526004356101c052426101e052602435610200527fa2b71ec6df949300b59aab36b55e189697b750119dd349fcfa8c0f779e83c25460806101a0a1005b63551a6588600051141561483d5734156147c657600080fd5b60045433146147d457600080fd5b61014051600658016100a9565b6101805261014052610180516101405261014051600755610140516008554260095542600a55610140516101a052426101c0527f46e22fb3709ad289f62ce63d469248536dbc78d82b84a3d7e74ad606dc20193860406101a0a1005b635b5a1467600051141561490657341561485657600080fd5b600454331461486457600080fd5b600b541561487157600080fd5b64012a05f200600435111561488557600080fd5b6402540be400602435111561489957600080fd5b426203f4808181830110156148ad57600080fd5b808201905090506101405261014051600b55600435600d55602435600e556004356101605260243561018052610140517f351fc5da2fbf480f2225debf3664a4bc90fa9923743aad58b4603f648e931fe06040610160a2005b634f12fe9760005114156149a557341561491f57600080fd5b600454331461492d57600080fd5b600b5442101561493c57600080fd5b6000600b541861494b57600080fd5b6000600b55600d5461014052600e546101605261014051600255610160516003556101405161018052610160516101a0527fbe12859b636aed607d5230b2cc2711f68d70e51060e6cca1f575ef5d2fcc95d16040610180a1005b63226840fb60005114156149d35734156149be57600080fd5b60045433146149cc57600080fd5b6000600b55005b636b441a406000511415614a745734156149ec57600080fd5b60043560205181106149fd57600080fd5b506004543314614a0c57600080fd5b600c5415614a1957600080fd5b426203f480818183011015614a2d57600080fd5b808201905090506101405261014051600c55600435600f55600435610140517f181aa3aa17d4cbf99265dd4443eba009433d3cde79d60164fde1d1a192beb93560006000a3005b636a1c05ae6000511415614af8573415614a8d57600080fd5b6004543314614a9b57600080fd5b600c54421015614aaa57600080fd5b6000600c5418614ab957600080fd5b6000600c55600f546101405261014051600455610140517f71614071b88dee5e0b2ae578a9dd7b2ebbe9ae832ba419dc0242cd065a290b6c60006000a2005b6386fbf1936000511415614b26573415614b1157600080fd5b6004543314614b1f57600080fd5b6000600c55005b636491ac006000511415614bcd573415614b3f57600080fd5b60206101c060246370a0823161014052306101605261015c60043560038110614b6757600080fd5b600060c052602060c02001545afa614b7e57600080fd5b601f3d11614b8b57600080fd5b6000506101c05160043560038110614ba257600080fd5b600160c052602060c020015480821015614bbb57600080fd5b8082039050905060005260206000f350005b635cb2bb086000511415614de7573415614be657600080fd5b61014060006003818352015b6101405160038110614c0357600080fd5b600060c052602060c020015461016052602061022060246370a082316101a052306101c0526101bc610160515afa614c3a57600080fd5b601f3d11614c4757600080fd5b600050610220516101405160038110614c5f57600080fd5b600160c052602060c020015480821015614c7857600080fd5b80820390509050610180526000610180511115614dd257600060046102a0527fa9059cbb000000000000000000000000000000000000000000000000000000006102c0526102a060048060208461030001018260208501600060045af150508051820191505060055460208261030001015260208101905061018051602082610300010152602081019050806103005261030090508051602001806103a08284600060045af1614d2757600080fd5b505060206104606103a0516103c06000610160515af1614d4657600080fd5b60203d80821115614d575780614d59565b815b90509050610440526104408051602001806102408284600060045af1614d7e57600080fd5b50506000610240511115614dd157610240806020015160008251806020901315614da757600080fd5b8091901215614db557600080fd5b806020036101000a82049050905090501515614dd057600080fd5b5b5b5b8151600101808352811415614bf2575b5050005b63e36988536000511415614e23573415614e0057600080fd5b6004543314614e0e57600080fd5b4260115411614e1c57600080fd5b6001601055005b633046f9726000511415614e51573415614e3c57600080fd5b6004543314614e4a57600080fd5b6000601055005b63c66106576000511415614e91573415614e6a57600080fd5b60043560038110614e7a57600080fd5b600060c052602060c020015460005260206000f350005b634903b0d16000511415614ed1573415614eaa57600080fd5b60043560038110614eba57600080fd5b600160c052602060c020015460005260206000f350005b63ddca3f436000511415614ef8573415614eea57600080fd5b60025460005260206000f350005b63165527326000511415614f1f573415614f1157600080fd5b60035460005260206000f350005b638da5cb5b6000511415614f46573415614f3857600080fd5b60045460005260206000f350005b63cab4d3db6000511415614f6d573415614f5f57600080fd5b60055460005260206000f350005b635409491a6000511415614f94573415614f8657600080fd5b60075460005260206000f350005b63b4b577ad6000511415614fbb573415614fad57600080fd5b60085460005260206000f350005b632081066c6000511415614fe2573415614fd457600080fd5b60095460005260206000f350005b63140522886000511415615009573415614ffb57600080fd5b600a5460005260206000f350005b63405e28f8600051141561503057341561502257600080fd5b600b5460005260206000f350005b63e0a0b586600051141561505757341561504957600080fd5b600c5460005260206000f350005b6358680d0b600051141561507e57341561507057600080fd5b600d5460005260206000f350005b6353a8ed1160005114156150a557341561509757600080fd5b600e5460005260206000f350005b631ec0cdc160005114156150cc5734156150be57600080fd5b600f5460005260206000f350005b5b60006000fd5b61020c6152df0361020c60003961020c6152df036000f3"
}