{
  "address": "0x14b07382683256aa1D4c853fAaE659A4135C0fC2",
  "abi": [
    {
      "inputs": [
        {
          "internalType": "address",
          "name": "_owner",
          "type": "address"
        },
        {
          "internalType": "address",
          "name": "_stakingToken",
          "type": "address"
        }
      ],
      "stateMutability": "nonpayable",
      "type": "constructor"
    },
    {
      "anonymous": false,
      "inputs": [
        {
          "indexed": false,
          "internalType": "address",
          "name": "oldOwner",
          "type": "address"
        },
        {
          "indexed": false,
          "internalType": "address",
          "name": "newOwner",
          "type": "address"
        }
      ],
      "name": "OwnerChanged",
      "type": "event"
    },
    {
      "anonymous": false,
      "inputs": [
        {
          "indexed": false,
          "internalType": "address",
          "name": "newOwner",
          "type": "address"
        }
      ],
      "name": "OwnerNominated",
      "type": "event"
    },
    {
      "anonymous": false,
      "inputs": [
        {
          "indexed": false,
          "internalType": "bool",
          "name": "isPaused",
          "type": "bool"
        }
      ],
      "name": "PauseChanged",
      "type": "event"
    },
    {
      "anonymous": false,
      "inputs": [
        {
          "indexed": false,
          "internalType": "address",
          "name": "token",
          "type": "address"
        },
        {
          "indexed": false,
          "internalType": "uint256",
          "name": "amount",
          "type": "uint256"
        }
      ],
      "name": "Recovered",
      "type": "event"
    },
    {
      "anonymous": false,
      "inputs": [
        {
          "indexed": false,
          "internalType": "uint256",
          "name": "reward",
          "type": "uint256"
        }
      ],
      "name": "RewardAdded",
      "type": "event"
    },
    {
      "anonymous": false,
      "inputs": [
        {
          "indexed": true,
          "internalType": "address",
          "name": "user",
          "type": "address"
        },
        {
          "indexed": true,
          "internalType": "address",
          "name": "rewardsToken",
          "type": "address"
        },
        {
          "indexed": false,
          "internalType": "uint256",
          "name": "reward",
          "type": "uint256"
        }
      ],
      "name": "RewardPaid",
      "type": "event"
    },
    {
      "anonymous": false,
      "inputs": [
        {
          "indexed": false,
          "internalType": "address",
          "name": "token",
          "type": "address"
        },
        {
          "indexed": false,
          "internalType": "uint256",
          "name": "newDuration",
          "type": "uint256"
        }
      ],
      "name": "RewardsDurationUpdated",
      "type": "event"
    },
    {
      "anonymous": false,
      "inputs": [
        {
          "indexed": true,
          "internalType": "address",
          "name": "user",
          "type": "address"
        },
        {
          "indexed": false,
          "internalType": "uint256",
          "name": "amount",
          "type": "uint256"
        }
      ],
      "name": "Staked",
      "type": "event"
    },
    {
      "anonymous": false,
      "inputs": [
        {
          "indexed": true,
          "internalType": "address",
          "name": "user",
          "type": "address"
        },
        {
          "indexed": false,
          "internalType": "uint256",
          "name": "amount",
          "type": "uint256"
        }
      ],
      "name": "Withdrawn",
      "type": "event"
    },
    {
      "inputs": [],
      "name": "acceptOwnership",
      "outputs": [],
      "stateMutability": "nonpayable",
      "type": "function"
    },
    {
      "inputs": [
        {
          "internalType": "address",
          "name": "_rewardsToken",
          "type": "address"
        },
        {
          "internalType": "address",
          "name": "_rewardsDistributor",
          "type": "address"
        },
        {
          "internalType": "uint256",
          "name": "_rewardsDuration",
          "type": "uint256"
        }
      ],
      "name": "addReward",
      "outputs": [],
      "stateMutability": "nonpayable",
      "type": "function"
    },
    {
      "inputs": [
        {
          "internalType": "address",
          "name": "account",
          "type": "address"
        }
      ],
      "name": "balanceOf",
      "outputs": [
        {
          "internalType": "uint256",
          "name": "",
          "type": "uint256"
        }
      ],
      "stateMutability": "view",
      "type": "function"
    },
    {
      "inputs": [
        {
          "internalType": "address",
          "name": "account",
          "type": "address"
        },
        {
          "internalType": "address",
          "name": "_rewardsToken",
          "type": "address"
        }
      ],
      "name": "earned",
      "outputs": [
        {
          "internalType": "uint256",
          "name": "",
          "type": "uint256"
        }
      ],
      "stateMutability": "view",
      "type": "function"
    },
    {
      "inputs": [],
      "name": "exit",
      "outputs": [],
      "stateMutability": "nonpayable",
      "type": "function"
    },
    {
      "inputs": [],
      "name": "getReward",
      "outputs": [],
      "stateMutability": "nonpayable",
      "type": "function"
    },
    {
      "inputs": [
        {
          "internalType": "address",
          "name": "_rewardsToken",
          "type": "address"
        }
      ],
      "name": "getRewardForDuration",
      "outputs": [
        {
          "internalType": "uint256",
          "name": "",
          "type": "uint256"
        }
      ],
      "stateMutability": "view",
      "type": "function"
    },
    {
      "inputs": [],
      "name": "lastPauseTime",
      "outputs": [
        {
          "internalType": "uint256",
          "name": "",
          "type": "uint256"
        }
      ],
      "stateMutability": "view",
      "type": "function"
    },
    {
      "inputs": [
        {
          "internalType": "address",
          "name": "_rewardsToken",
          "type": "address"
        }
      ],
      "name": "lastTimeRewardApplicable",
      "outputs": [
        {
          "internalType": "uint256",
          "name": "",
          "type": "uint256"
        }
      ],
      "stateMutability": "view",
      "type": "function"
    },
    {
      "inputs": [
        {
          "internalType": "address",
          "name": "_owner",
          "type": "address"
        }
      ],
      "name": "nominateNewOwner",
      "outputs": [],
      "stateMutability": "nonpayable",
      "type": "function"
    },
    {
      "inputs": [],
      "name": "nominatedOwner",
      "outputs": [
        {
          "internalType": "address",
          "name": "",
          "type": "address"
        }
      ],
      "stateMutability": "view",
      "type": "function"
    },
    {
      "inputs": [
        {
          "internalType": "address",
          "name": "_rewardsToken",
          "type": "address"
        },
        {
          "internalType": "uint256",
          "name": "reward",
          "type": "uint256"
        }
      ],
      "name": "notifyRewardAmount",
      "outputs": [],
      "stateMutability": "nonpayable",
      "type": "function"
    },
    {
      "inputs": [],
      "name": "owner",
      "outputs": [
        {
          "internalType": "address",
          "name": "",
          "type": "address"
        }
      ],
      "stateMutability": "view",
      "type": "function"
    },
    {
      "inputs": [],
      "name": "paused",
      "outputs": [
        {
          "internalType": "bool",
          "name": "",
          "type": "bool"
        }
      ],
      "stateMutability": "view",
      "type": "function"
    },
    {
      "inputs": [
        {
          "internalType": "address",
          "name": "tokenAddress",
          "type": "address"
        },
        {
          "internalType": "uint256",
          "name": "tokenAmount",
          "type": "uint256"
        }
      ],
      "name": "recoverERC20",
      "outputs": [],
      "stateMutability": "nonpayable",
      "type": "function"
    },
    {
      "inputs": [
        {
          "internalType": "address",
          "name": "",
          "type": "address"
        }
      ],
      "name": "rewardData",
      "outputs": [
        {
          "internalType": "address",
          "name": "rewardsDistributor",
          "type": "address"
        },
        {
          "internalType": "uint256",
          "name": "rewardsDuration",
          "type": "uint256"
        },
        {
          "internalType": "uint256",
          "name": "periodFinish",
          "type": "uint256"
        },
        {
          "internalType": "uint256",
          "name": "rewardRate",
          "type": "uint256"
        },
        {
          "internalType": "uint256",
          "name": "lastUpdateTime",
          "type": "uint256"
        },
        {
          "internalType": "uint256",
          "name": "rewardPerTokenStored",
          "type": "uint256"
        }
      ],
      "stateMutability": "view",
      "type": "function"
    },
    {
      "inputs": [
        {
          "internalType": "address",
          "name": "_rewardsToken",
          "type": "address"
        }
      ],
      "name": "rewardPerToken",
      "outputs": [
        {
          "internalType": "uint256",
          "name": "",
          "type": "uint256"
        }
      ],
      "stateMutability": "view",
      "type": "function"
    },
    {
      "inputs": [
        {
          "internalType": "uint256",
          "name": "",
          "type": "uint256"
        }
      ],
      "name": "rewardTokens",
      "outputs": [
        {
          "internalType": "address",
          "name": "",
          "type": "address"
        }
      ],
      "stateMutability": "view",
      "type": "function"
    },
    {
      "inputs": [
        {
          "internalType": "address",
          "name": "",
          "type": "address"
        },
        {
          "internalType": "address",
          "name": "",
          "type": "address"
        }
      ],
      "name": "rewards",
      "outputs": [
        {
          "internalType": "uint256",
          "name": "",
          "type": "uint256"
        }
      ],
      "stateMutability": "view",
      "type": "function"
    },
    {
      "inputs": [
        {
          "internalType": "bool",
          "name": "_paused",
          "type": "bool"
        }
      ],
      "name": "setPaused",
      "outputs": [],
      "stateMutability": "nonpayable",
      "type": "function"
    },
    {
      "inputs": [
        {
          "internalType": "address",
          "name": "_rewardsToken",
          "type": "address"
        },
        {
          "internalType": "address",
          "name": "_rewardsDistributor",
          "type": "address"
        }
      ],
      "name": "setRewardsDistributor",
      "outputs": [],
      "stateMutability": "nonpayable",
      "type": "function"
    },
    {
      "inputs": [
        {
          "internalType": "address",
          "name": "_rewardsToken",
          "type": "address"
        },
        {
          "internalType": "uint256",
          "name": "_rewardsDuration",
          "type": "uint256"
        }
      ],
      "name": "setRewardsDuration",
      "outputs": [],
      "stateMutability": "nonpayable",
      "type": "function"
    },
    {
      "inputs": [
        {
          "internalType": "uint256",
          "name": "amount",
          "type": "uint256"
        }
      ],
      "name": "stake",
      "outputs": [],
      "stateMutability": "nonpayable",
      "type": "function"
    },
    {
      "inputs": [],
      "name": "stakingToken",
      "outputs": [
        {
          "internalType": "contract IERC20",
          "name": "",
          "type": "address"
        }
      ],
      "stateMutability": "view",
      "type": "function"
    },
    {
      "inputs": [],
      "name": "totalSupply",
      "outputs": [
        {
          "internalType": "uint256",
          "name": "",
          "type": "uint256"
        }
      ],
      "stateMutability": "view",
      "type": "function"
    },
    {
      "inputs": [
        {
          "internalType": "address",
          "name": "",
          "type": "address"
        },
        {
          "internalType": "address",
          "name": "",
          "type": "address"
        }
      ],
      "name": "userRewardPerTokenPaid",
      "outputs": [
        {
          "internalType": "uint256",
          "name": "",
          "type": "uint256"
        }
      ],
      "stateMutability": "view",
      "type": "function"
    },
    {
      "inputs": [
        {
          "internalType": "uint256",
          "name": "amount",
          "type": "uint256"
        }
      ],
      "name": "withdraw",
      "outputs": [],
      "stateMutability": "nonpayable",
      "type": "function"
    }
  ],
  "transactionHash": "0x996fc8ea9b260923152f3e8dcb8ed6f69f5ecad8ac95fed4cbebe45f78eccd02",
  "args": [
    "0x25dddc42dbCf3b018515523D08dB69B528e60a92",
    "0xFDE5214eF60617fb63A688C9C51cF5262254B4b7"
  ],
  "solcInputHash": "1631fba6c5a30305f4de0d3ecbabe430",
  "bytecode": "0x608060405234801561001057600080fd5b5060405161245d38038061245d8339818101604052604081101561003357600080fd5b5080516020909101516001600055816001600160a01b03811661009d576040805162461bcd60e51b815260206004820152601960248201527f4f776e657220616464726573732063616e6e6f74206265203000000000000000604482015290519081900360640190fd5b600180546001600160a01b0319166001600160a01b0383169081179091556040805160008152602081019290925280517fb532073b38c83145e3e5135377a08bf9aab55bc0fd7c1179cd4fb995d2a5159c9281900390910190a1506001546001600160a01b0316610149576040805162461bcd60e51b815260206004820152601160248201527013dddb995c881b5d5cdd081899481cd95d607a1b604482015290519081900360640190fd5b600480546001600160a01b0390921661010002610100600160a81b0319909216919091179055506122de8061017f6000396000f3fe608060405234801561001057600080fd5b50600436106101b95760003560e01c806370a08231116100f9578063a694fc3a11610097578063d0ed26ae11610071578063d0ed26ae1461056a578063e70b9e27146105ad578063e9fad8ee146105e8578063f1229777146105f0576101b9565b8063a694fc3a146104e1578063b66503cf146104fe578063bcd1101414610537576101b9565b80637bb7bed1116100d35780637bb7bed11461047b5780638980f11f146104985780638da5cb5b146104d157806391b4ded9146104d9576101b9565b806370a082311461043857806372f702f31461046b57806379ba509714610473576101b9565b80633d18b9121161016657806353a47bb71161014057806353a47bb71461037d5780635c975abb146103ae578063638634ee146103ca5780637035ab98146103fd576101b9565b80633d18b912146102bd5780633f695b45146102c557806348e5d9f814610300576101b9565b8063211dc32d11610197578063211dc32d1461022c5780632378bea6146102675780632e1a7d4d146102a0576101b9565b80631627540c146101be57806316c38b3c146101f357806318160ddd14610212575b600080fd5b6101f1600480360360208110156101d457600080fd5b503573ffffffffffffffffffffffffffffffffffffffff16610623565b005b6101f16004803603602081101561020957600080fd5b503515156106a4565b61021a61073c565b60408051918252519081900360200190f35b61021a6004803603604081101561024257600080fd5b5073ffffffffffffffffffffffffffffffffffffffff81358116916020013516610742565b6101f16004803603604081101561027d57600080fd5b5073ffffffffffffffffffffffffffffffffffffffff81351690602001356107f7565b6101f1600480360360208110156102b657600080fd5b5035610998565b6101f1610c41565b6101f1600480360360408110156102db57600080fd5b5073ffffffffffffffffffffffffffffffffffffffff81358116916020013516610ed2565b6103336004803603602081101561031657600080fd5b503573ffffffffffffffffffffffffffffffffffffffff16610f2d565b6040805173ffffffffffffffffffffffffffffffffffffffff90971687526020870195909552858501939093526060850191909152608084015260a0830152519081900360c00190f35b610385610f79565b6040805173ffffffffffffffffffffffffffffffffffffffff9092168252519081900360200190f35b6103b6610f95565b604080519115158252519081900360200190f35b61021a600480360360208110156103e057600080fd5b503573ffffffffffffffffffffffffffffffffffffffff16610f9e565b61021a6004803603604081101561041357600080fd5b5073ffffffffffffffffffffffffffffffffffffffff81358116916020013516610fda565b61021a6004803603602081101561044e57600080fd5b503573ffffffffffffffffffffffffffffffffffffffff16610ff7565b61038561101f565b6101f1611040565b6103856004803603602081101561049157600080fd5b5035611155565b6101f1600480360360408110156104ae57600080fd5b5073ffffffffffffffffffffffffffffffffffffffff8135169060200135611189565b610385611331565b61021a61134d565b6101f1600480360360208110156104f757600080fd5b5035611353565b6101f16004803603604081101561051457600080fd5b5073ffffffffffffffffffffffffffffffffffffffff8135169060200135611656565b61021a6004803603602081101561054d57600080fd5b503573ffffffffffffffffffffffffffffffffffffffff166119cf565b6101f16004803603606081101561058057600080fd5b5073ffffffffffffffffffffffffffffffffffffffff813581169160208101359091169060400135611a08565b61021a600480360360408110156105c357600080fd5b5073ffffffffffffffffffffffffffffffffffffffff81358116916020013516611ad6565b6101f1611af3565b61021a6004803603602081101561060657600080fd5b503573ffffffffffffffffffffffffffffffffffffffff16611b16565b61062b611be4565b6002805473ffffffffffffffffffffffffffffffffffffffff83167fffffffffffffffffffffffff0000000000000000000000000000000000000000909116811790915560408051918252517f906a1c6bd7e3091ea86693dd029a831c19049ce77f1dce2ce0bab1cacbabce229181900360200190a150565b6106ac611be4565b60045460ff16151581151514156106c257610739565b600480547fffffffffffffffffffffffffffffffffffffffffffffffffffffffffffffff0016821515179081905560ff16156106fd57426003555b6004546040805160ff90921615158252517f8fb6c181ee25a520cf3dd6565006ef91229fcfe5a989566c2a3b8c115570cec59181900360200190a15b50565b60095490565b73ffffffffffffffffffffffffffffffffffffffff80831660008181526008602090815260408083209486168084529482528083205493835260078252808320948352939052918220546107ee91906107e890670de0b6b3a7640000906107e2906107b6906107b089611b16565b90611c54565b73ffffffffffffffffffffffffffffffffffffffff89166000908152600a602052604090205490611ccb565b90611d3e565b90611dc2565b90505b92915050565b73ffffffffffffffffffffffffffffffffffffffff8216600090815260056020526040902060020154421161088d57604080517f08c379a000000000000000000000000000000000000000000000000000000000815260206004820152601a60248201527f52657761726420706572696f64207374696c6c20616374697665000000000000604482015290519081900360640190fd5b73ffffffffffffffffffffffffffffffffffffffff8281166000908152600560205260409020541633146108c057600080fd5b6000811161092f57604080517f08c379a000000000000000000000000000000000000000000000000000000000815260206004820181905260248201527f526577617264206475726174696f6e206d757374206265206e6f6e2d7a65726f604482015290519081900360640190fd5b73ffffffffffffffffffffffffffffffffffffffff82166000818152600560209081526040918290206001018490558151928352820183905280517fad2f86b01ed93b4b3a150d448c61a4f5d8d38075d3c0c64cc0a26fd6e1f495459281900390910190a15050565b600080546001018082559033905b600654811015610abf576000600682815481106109bf57fe5b60009182526020909120015473ffffffffffffffffffffffffffffffffffffffff1690506109ec81611b16565b73ffffffffffffffffffffffffffffffffffffffff821660009081526005602081905260409091200155610a1f81610f9e565b73ffffffffffffffffffffffffffffffffffffffff808316600090815260056020526040902060040191909155831615610ab657610a5d8382610742565b73ffffffffffffffffffffffffffffffffffffffff808516600081815260086020908152604080832094871680845294825280832095909555600580825285832001549282526007815284822093825292909252919020555b506001016109a6565b5060008311610b2f57604080517f08c379a000000000000000000000000000000000000000000000000000000000815260206004820152601160248201527f43616e6e6f742077697468647261772030000000000000000000000000000000604482015290519081900360640190fd5b600954610b3c9084611c54565b600955336000908152600a6020526040902054610b599084611c54565b336000818152600a6020526040902091909155600454610b969161010090910473ffffffffffffffffffffffffffffffffffffffff169085611e36565b60408051848152905133917f7084f5476618d8e60b11ef0d7d3f06914655adb8793e28ff7f018d4c76d505d5919081900360200190a2506000548114610c3d57604080517f08c379a000000000000000000000000000000000000000000000000000000000815260206004820152601f60248201527f5265656e7472616e637947756172643a207265656e7472616e742063616c6c00604482015290519081900360640190fd5b5050565b600080546001018082559033905b600654811015610d6857600060068281548110610c6857fe5b60009182526020909120015473ffffffffffffffffffffffffffffffffffffffff169050610c9581611b16565b73ffffffffffffffffffffffffffffffffffffffff821660009081526005602081905260409091200155610cc881610f9e565b73ffffffffffffffffffffffffffffffffffffffff808316600090815260056020526040902060040191909155831615610d5f57610d068382610742565b73ffffffffffffffffffffffffffffffffffffffff808516600081815260086020908152604080832094871680845294825280832095909555600580825285832001549282526007815284822093825292909252919020555b50600101610c4f565b5060005b600654811015610e6057600060068281548110610d8557fe5b600091825260208083209091015433835260088252604080842073ffffffffffffffffffffffffffffffffffffffff909216808552919092529120549091508015610e565733600081815260086020908152604080832073ffffffffffffffffffffffffffffffffffffffff87168085529252822091909155610e089183611e36565b60408051828152905173ffffffffffffffffffffffffffffffffffffffff84169133917f540798df468d7b23d11f156fdb954cb19ad414d150722a7b6d55ba369dea792e9181900360200190a35b5050600101610d6c565b5050600054811461073957604080517f08c379a000000000000000000000000000000000000000000000000000000000815260206004820152601f60248201527f5265656e7472616e637947756172643a207265656e7472616e742063616c6c00604482015290519081900360640190fd5b610eda611be4565b73ffffffffffffffffffffffffffffffffffffffff918216600090815260056020526040902080547fffffffffffffffffffffffff00000000000000000000000000000000000000001691909216179055565b600560208190526000918252604090912080546001820154600283015460038401546004850154949095015473ffffffffffffffffffffffffffffffffffffffff909316949193909286565b60025473ffffffffffffffffffffffffffffffffffffffff1681565b60045460ff1681565b73ffffffffffffffffffffffffffffffffffffffff8116600090815260056020526040812060020154610fd2904290611ec8565b90505b919050565b600760209081526000928352604080842090915290825290205481565b73ffffffffffffffffffffffffffffffffffffffff166000908152600a602052604090205490565b600454610100900473ffffffffffffffffffffffffffffffffffffffff1681565b60025473ffffffffffffffffffffffffffffffffffffffff1633146110b0576040517f08c379a00000000000000000000000000000000000000000000000000000000081526004018080602001828103825260358152602001806121be6035913960400191505060405180910390fd5b6001546002546040805173ffffffffffffffffffffffffffffffffffffffff938416815292909116602083015280517fb532073b38c83145e3e5135377a08bf9aab55bc0fd7c1179cd4fb995d2a5159c9281900390910190a160028054600180547fffffffffffffffffffffffff000000000000000000000000000000000000000090811673ffffffffffffffffffffffffffffffffffffffff841617909155169055565b6006818154811061116257fe5b60009182526020909120015473ffffffffffffffffffffffffffffffffffffffff16905081565b611191611be4565b60045473ffffffffffffffffffffffffffffffffffffffff83811661010090920416141561122057604080517f08c379a000000000000000000000000000000000000000000000000000000000815260206004820152601d60248201527f43616e6e6f74207769746864726177207374616b696e6720746f6b656e000000604482015290519081900360640190fd5b73ffffffffffffffffffffffffffffffffffffffff8216600090815260056020526040902060040154156112b557604080517f08c379a000000000000000000000000000000000000000000000000000000000815260206004820152601c60248201527f43616e6e6f742077697468647261772072657761726420746f6b656e00000000604482015290519081900360640190fd5b6001546112dc9073ffffffffffffffffffffffffffffffffffffffff848116911683611e36565b6040805173ffffffffffffffffffffffffffffffffffffffff841681526020810183905281517f8c1256b8896378cd5044f80c202f9772b9d77dc85c8a6eb51967210b09bfaa28929181900390910190a15050565b60015473ffffffffffffffffffffffffffffffffffffffff1681565b60035481565b600080546001019081905560045460ff16156113ba576040517f08c379a000000000000000000000000000000000000000000000000000000000815260040180806020018281038252603c815260200180612243603c913960400191505060405180910390fd5b3360005b6006548110156114d7576000600682815481106113d757fe5b60009182526020909120015473ffffffffffffffffffffffffffffffffffffffff16905061140481611b16565b73ffffffffffffffffffffffffffffffffffffffff82166000908152600560208190526040909120015561143781610f9e565b73ffffffffffffffffffffffffffffffffffffffff8083166000908152600560205260409020600401919091558316156114ce576114758382610742565b73ffffffffffffffffffffffffffffffffffffffff808516600081815260086020908152604080832094871680845294825280832095909555600580825285832001549282526007815284822093825292909252919020555b506001016113be565b506000831161154757604080517f08c379a000000000000000000000000000000000000000000000000000000000815260206004820152600e60248201527f43616e6e6f74207374616b652030000000000000000000000000000000000000604482015290519081900360640190fd5b6009546115549084611dc2565b600955336000908152600a60205260409020546115719084611dc2565b336000818152600a60205260409020919091556004546115af9161010090910473ffffffffffffffffffffffffffffffffffffffff16903086611ede565b60408051848152905133917f9e71bc8eea02a63969f509818f2dafb9254532904319f9dbda79b67bd34a5f3d919081900360200190a2506000548114610c3d57604080517f08c379a000000000000000000000000000000000000000000000000000000000815260206004820152601f60248201527f5265656e7472616e637947756172643a207265656e7472616e742063616c6c00604482015290519081900360640190fd5b6000805b6006548110156117735760006006828154811061167357fe5b60009182526020909120015473ffffffffffffffffffffffffffffffffffffffff1690506116a081611b16565b73ffffffffffffffffffffffffffffffffffffffff8216600090815260056020819052604090912001556116d381610f9e565b73ffffffffffffffffffffffffffffffffffffffff80831660009081526005602052604090206004019190915583161561176a576117118382610742565b73ffffffffffffffffffffffffffffffffffffffff808516600081815260086020908152604080832094871680845294825280832095909555600580825285832001549282526007815284822093825292909252919020555b5060010161165a565b5073ffffffffffffffffffffffffffffffffffffffff8381166000908152600560205260409020541633146117a757600080fd5b6117c973ffffffffffffffffffffffffffffffffffffffff8416333085611ede565b73ffffffffffffffffffffffffffffffffffffffff8316600090815260056020526040902060020154421061185a5773ffffffffffffffffffffffffffffffffffffffff831660009081526005602052604090206001015461182c908390611d3e565b73ffffffffffffffffffffffffffffffffffffffff841660009081526005602052604090206003015561192b565b73ffffffffffffffffffffffffffffffffffffffff831660009081526005602052604081206002015461188d9042611c54565b73ffffffffffffffffffffffffffffffffffffffff8516600090815260056020526040812060030154919250906118c5908390611ccb565b73ffffffffffffffffffffffffffffffffffffffff86166000908152600560205260409020600101549091506118ff906107e28684611dc2565b73ffffffffffffffffffffffffffffffffffffffff861660009081526005602052604090206003015550505b73ffffffffffffffffffffffffffffffffffffffff8316600090815260056020526040902042600482018190556001909101546119689190611dc2565b73ffffffffffffffffffffffffffffffffffffffff841660009081526005602090815260409182902060020192909255805184815290517fde88a922e0d3b88b24e9623efeb464919c6bf9f66857a65e2bfcf2ce87a9433d929181900390910190a1505050565b73ffffffffffffffffffffffffffffffffffffffff811660009081526005602052604081206001810154600390910154610fd291611ccb565b611a10611be4565b73ffffffffffffffffffffffffffffffffffffffff831660009081526005602052604090206001015415611a4357600080fd5b6006805460018181019092557ff652222313e28459528d920b65115c16c04f3efc82aaedc97be59f3f377c0d3f01805473ffffffffffffffffffffffffffffffffffffffff9586167fffffffffffffffffffffffff000000000000000000000000000000000000000091821681179092556000918252600560205260409091208054949095169316929092178355910155565b600860209081526000928352604080842090915290825290205481565b336000908152600a6020526040902054611b0c90610998565b611b14610c41565b565b600060095460001415611b53575073ffffffffffffffffffffffffffffffffffffffff811660009081526005602081905260409091200154610fd5565b60095473ffffffffffffffffffffffffffffffffffffffff831660009081526005602052604090206003810154600490910154610fd292611bb49290916107e291670de0b6b3a764000091611bae919082906107b08b610f9e565b90611ccb565b73ffffffffffffffffffffffffffffffffffffffff84166000908152600560208190526040909120015490611dc2565b60015473ffffffffffffffffffffffffffffffffffffffff163314611b14576040517f08c379a000000000000000000000000000000000000000000000000000000000815260040180806020018281038252602f8152602001806121f3602f913960400191505060405180910390fd5b600082821115611cc557604080517f08c379a000000000000000000000000000000000000000000000000000000000815260206004820152601e60248201527f536166654d6174683a207375627472616374696f6e206f766572666c6f770000604482015290519081900360640190fd5b50900390565b600082611cda575060006107f1565b82820282848281611ce757fe5b04146107ee576040517f08c379a00000000000000000000000000000000000000000000000000000000081526004018080602001828103825260218152602001806122226021913960400191505060405180910390fd5b6000808211611dae57604080517f08c379a000000000000000000000000000000000000000000000000000000000815260206004820152601a60248201527f536166654d6174683a206469766973696f6e206279207a65726f000000000000604482015290519081900360640190fd5b6000828481611db957fe5b04949350505050565b6000828201838110156107ee57604080517f08c379a000000000000000000000000000000000000000000000000000000000815260206004820152601b60248201527f536166654d6174683a206164646974696f6e206f766572666c6f770000000000604482015290519081900360640190fd5b6040805173ffffffffffffffffffffffffffffffffffffffff8416602482015260448082018490528251808303909101815260649091019091526020810180517bffffffffffffffffffffffffffffffffffffffffffffffffffffffff167fa9059cbb00000000000000000000000000000000000000000000000000000000179052611ec3908490611f79565b505050565b6000818310611ed757816107ee565b5090919050565b6040805173ffffffffffffffffffffffffffffffffffffffff80861660248301528416604482015260648082018490528251808303909101815260849091019091526020810180517bffffffffffffffffffffffffffffffffffffffffffffffffffffffff167f23b872dd00000000000000000000000000000000000000000000000000000000179052611f73908590611f79565b50505050565b611f988273ffffffffffffffffffffffffffffffffffffffff166121b7565b61200357604080517f08c379a000000000000000000000000000000000000000000000000000000000815260206004820152601f60248201527f5361666545524332303a2063616c6c20746f206e6f6e2d636f6e747261637400604482015290519081900360640190fd5b600060608373ffffffffffffffffffffffffffffffffffffffff16836040518082805190602001908083835b6020831061206c57805182527fffffffffffffffffffffffffffffffffffffffffffffffffffffffffffffffe0909201916020918201910161202f565b6001836020036101000a0380198251168184511680821785525050505050509050019150506000604051808303816000865af19150503d80600081146120ce576040519150601f19603f3d011682016040523d82523d6000602084013e6120d3565b606091505b50915091508161214457604080517f08c379a000000000000000000000000000000000000000000000000000000000815260206004820181905260248201527f5361666545524332303a206c6f772d6c6576656c2063616c6c206661696c6564604482015290519081900360640190fd5b805115611f735780806020019051602081101561216057600080fd5b5051611f73576040517f08c379a000000000000000000000000000000000000000000000000000000000815260040180806020018281038252602a81526020018061227f602a913960400191505060405180910390fd5b3b15159056fe596f75206d757374206265206e6f6d696e61746564206265666f726520796f752063616e20616363657074206f776e6572736869704f6e6c792074686520636f6e7472616374206f776e6572206d617920706572666f726d207468697320616374696f6e536166654d6174683a206d756c7469706c69636174696f6e206f766572666c6f775468697320616374696f6e2063616e6e6f7420626520706572666f726d6564207768696c652074686520636f6e7472616374206973207061757365645361666545524332303a204552433230206f7065726174696f6e20646964206e6f742073756363656564a2646970667358221220b24caa53546808fb7292613fe28f6e31a046daef4e3c73f7eb49577412f696b964736f6c634300060c0033",
  "devdoc": {
    "kind": "dev",
    "methods": {
      "setPaused(bool)": {
        "details": "Only the contract owner may call this."
      }
    },
    "version": 1
  },
  "userdoc": {
    "kind": "user",
    "methods": {
      "setPaused(bool)": {
        "notice": "Change the paused state of the contract"
      }
    },
    "version": 1
  },
  "storageLayout": {
    "storage": [
      {
        "astId": 340,
        "contract": "contracts/farms/MultiRewards.sol:MultiRewards",
        "label": "_guardCounter",
        "offset": 0,
        "slot": "0",
        "type": "t_uint256"
      },
      {
        "astId": 168,
        "contract": "contracts/farms/MultiRewards.sol:MultiRewards",
        "label": "owner",
        "offset": 0,
        "slot": "1",
        "type": "t_address"
      },
      {
        "astId": 170,
        "contract": "contracts/farms/MultiRewards.sol:MultiRewards",
        "label": "nominatedOwner",
        "offset": 0,
        "slot": "2",
        "type": "t_address"
      },
      {
        "astId": 276,
        "contract": "contracts/farms/MultiRewards.sol:MultiRewards",
        "label": "lastPauseTime",
        "offset": 0,
        "slot": "3",
        "type": "t_uint256"
      },
      {
        "astId": 278,
        "contract": "contracts/farms/MultiRewards.sol:MultiRewards",
        "label": "paused",
        "offset": 0,
        "slot": "4",
        "type": "t_bool"
      },
      {
        "astId": 751,
        "contract": "contracts/farms/MultiRewards.sol:MultiRewards",
        "label": "stakingToken",
        "offset": 1,
        "slot": "4",
        "type": "t_contract(IERC20)94"
      },
      {
        "astId": 755,
        "contract": "contracts/farms/MultiRewards.sol:MultiRewards",
        "label": "rewardData",
        "offset": 0,
        "slot": "5",
        "type": "t_mapping(t_address,t_struct(Reward)749_storage)"
      },
      {
        "astId": 758,
        "contract": "contracts/farms/MultiRewards.sol:MultiRewards",
        "label": "rewardTokens",
        "offset": 0,
        "slot": "6",
        "type": "t_array(t_address)dyn_storage"
      },
      {
        "astId": 764,
        "contract": "contracts/farms/MultiRewards.sol:MultiRewards",
        "label": "userRewardPerTokenPaid",
        "offset": 0,
        "slot": "7",
        "type": "t_mapping(t_address,t_mapping(t_address,t_uint256))"
      },
      {
        "astId": 770,
        "contract": "contracts/farms/MultiRewards.sol:MultiRewards",
        "label": "rewards",
        "offset": 0,
        "slot": "8",
        "type": "t_mapping(t_address,t_mapping(t_address,t_uint256))"
      },
      {
        "astId": 772,
        "contract": "contracts/farms/MultiRewards.sol:MultiRewards",
        "label": "_totalSupply",
        "offset": 0,
        "slot": "9",
        "type": "t_uint256"
      },
      {
        "astId": 776,
        "contract": "contracts/farms/MultiRewards.sol:MultiRewards",
        "label": "_balances",
        "offset": 0,
        "slot": "10",
        "type": "t_mapping(t_address,t_uint256)"
      }
    ],
    "types": {
      "t_address": {
        "encoding": "inplace",
        "label": "address",
        "numberOfBytes": "20"
      },
      "t_array(t_address)dyn_storage": {
        "base": "t_address",
        "encoding": "dynamic_array",
        "label": "address[]",
        "numberOfBytes": "32"
      },
      "t_bool": {
        "encoding": "inplace",
        "label": "bool",
        "numberOfBytes": "1"
      },
      "t_contract(IERC20)94": {
        "encoding": "inplace",
        "label": "contract IERC20",
        "numberOfBytes": "20"
      },
      "t_mapping(t_address,t_mapping(t_address,t_uint256))": {
        "encoding": "mapping",
        "key": "t_address",
        "label": "mapping(address => mapping(address => uint256))",
        "numberOfBytes": "32",
        "value": "t_mapping(t_address,t_uint256)"
      },
      "t_mapping(t_address,t_struct(Reward)749_storage)": {
        "encoding": "mapping",
        "key": "t_address",
        "label": "mapping(address => struct MultiRewards.Reward)",
        "numberOfBytes": "32",
        "value": "t_struct(Reward)749_storage"
      },
      "t_mapping(t_address,t_uint256)": {
        "encoding": "mapping",
        "key": "t_address",
        "label": "mapping(address => uint256)",
        "numberOfBytes": "32",
        "value": "t_uint256"
      },
      "t_struct(Reward)749_storage": {
        "encoding": "inplace",
        "label": "struct MultiRewards.Reward",
        "members": [
          {
            "astId": 738,
            "contract": "contracts/farms/MultiRewards.sol:MultiRewards",
            "label": "rewardsDistributor",
            "offset": 0,
            "slot": "0",
            "type": "t_address"
          },
          {
            "astId": 740,
            "contract": "contracts/farms/MultiRewards.sol:MultiRewards",
            "label": "rewardsDuration",
            "offset": 0,
            "slot": "1",
            "type": "t_uint256"
          },
          {
            "astId": 742,
            "contract": "contracts/farms/MultiRewards.sol:MultiRewards",
            "label": "periodFinish",
            "offset": 0,
            "slot": "2",
            "type": "t_uint256"
          },
          {
            "astId": 744,
            "contract": "contracts/farms/MultiRewards.sol:MultiRewards",
            "label": "rewardRate",
            "offset": 0,
            "slot": "3",
            "type": "t_uint256"
          },
          {
            "astId": 746,
            "contract": "contracts/farms/MultiRewards.sol:MultiRewards",
            "label": "lastUpdateTime",
            "offset": 0,
            "slot": "4",
            "type": "t_uint256"
          },
          {
            "astId": 748,
            "contract": "contracts/farms/MultiRewards.sol:MultiRewards",
            "label": "rewardPerTokenStored",
            "offset": 0,
            "slot": "5",
            "type": "t_uint256"
          }
        ],
        "numberOfBytes": "192"
      },
      "t_uint256": {
        "encoding": "inplace",
        "label": "uint256",
        "numberOfBytes": "32"
      }
    }
  }
}