{
  "address": "0x2DA7d8a8f56bD05421C33cf2ce59bBB121EF1462",
  "abi": [
    {
      "inputs": [
        {
          "internalType": "address",
          "name": "_rewardsToken",
          "type": "address"
        },
        {
          "internalType": "address",
          "name": "_stakingToken",
          "type": "address"
        }
      ],
      "stateMutability": "nonpayable",
      "type": "constructor"
    },
    {
      "anonymous": false,
      "inputs": [
        {
          "indexed": true,
          "internalType": "address",
          "name": "previousOwner",
          "type": "address"
        },
        {
          "indexed": true,
          "internalType": "address",
          "name": "newOwner",
          "type": "address"
        }
      ],
      "name": "OwnershipTransferred",
      "type": "event"
    },
    {
      "anonymous": false,
      "inputs": [
        {
          "indexed": false,
          "internalType": "address",
          "name": "account",
          "type": "address"
        }
      ],
      "name": "Paused",
      "type": "event"
    },
    {
      "anonymous": false,
      "inputs": [
        {
          "indexed": false,
          "internalType": "address",
          "name": "token",
          "type": "address"
        },
        {
          "indexed": false,
          "internalType": "uint256",
          "name": "amount",
          "type": "uint256"
        }
      ],
      "name": "Recovered",
      "type": "event"
    },
    {
      "anonymous": false,
      "inputs": [
        {
          "indexed": false,
          "internalType": "uint256",
          "name": "reward",
          "type": "uint256"
        }
      ],
      "name": "RewardAdded",
      "type": "event"
    },
    {
      "anonymous": false,
      "inputs": [
        {
          "indexed": true,
          "internalType": "address",
          "name": "user",
          "type": "address"
        },
        {
          "indexed": false,
          "internalType": "uint256",
          "name": "reward",
          "type": "uint256"
        }
      ],
      "name": "RewardPaid",
      "type": "event"
    },
    {
      "anonymous": false,
      "inputs": [
        {
          "indexed": false,
          "internalType": "uint256",
          "name": "newDuration",
          "type": "uint256"
        }
      ],
      "name": "RewardsDurationUpdated",
      "type": "event"
    },
    {
      "anonymous": false,
      "inputs": [
        {
          "indexed": true,
          "internalType": "address",
          "name": "user",
          "type": "address"
        },
        {
          "indexed": false,
          "internalType": "uint256",
          "name": "amount",
          "type": "uint256"
        }
      ],
      "name": "Staked",
      "type": "event"
    },
    {
      "anonymous": false,
      "inputs": [
        {
          "indexed": false,
          "internalType": "address",
          "name": "account",
          "type": "address"
        }
      ],
      "name": "Unpaused",
      "type": "event"
    },
    {
      "anonymous": false,
      "inputs": [
        {
          "indexed": true,
          "internalType": "address",
          "name": "user",
          "type": "address"
        },
        {
          "indexed": false,
          "internalType": "uint256",
          "name": "amount",
          "type": "uint256"
        }
      ],
      "name": "Withdrawn",
      "type": "event"
    },
    {
      "inputs": [
        {
          "internalType": "address",
          "name": "account",
          "type": "address"
        }
      ],
      "name": "balanceOf",
      "outputs": [
        {
          "internalType": "uint256",
          "name": "",
          "type": "uint256"
        }
      ],
      "stateMutability": "view",
      "type": "function"
    },
    {
      "inputs": [
        {
          "internalType": "address",
          "name": "account",
          "type": "address"
        }
      ],
      "name": "earned",
      "outputs": [
        {
          "internalType": "uint256",
          "name": "",
          "type": "uint256"
        }
      ],
      "stateMutability": "view",
      "type": "function"
    },
    {
      "inputs": [],
      "name": "exit",
      "outputs": [],
      "stateMutability": "nonpayable",
      "type": "function"
    },
    {
      "inputs": [],
      "name": "getReward",
      "outputs": [],
      "stateMutability": "nonpayable",
      "type": "function"
    },
    {
      "inputs": [],
      "name": "getRewardForDuration",
      "outputs": [
        {
          "internalType": "uint256",
          "name": "",
          "type": "uint256"
        }
      ],
      "stateMutability": "view",
      "type": "function"
    },
    {
      "inputs": [],
      "name": "lastTimeRewardApplicable",
      "outputs": [
        {
          "internalType": "uint256",
          "name": "",
          "type": "uint256"
        }
      ],
      "stateMutability": "view",
      "type": "function"
    },
    {
      "inputs": [],
      "name": "lastUpdateTime",
      "outputs": [
        {
          "internalType": "uint256",
          "name": "",
          "type": "uint256"
        }
      ],
      "stateMutability": "view",
      "type": "function"
    },
    {
      "inputs": [],
      "name": "owner",
      "outputs": [
        {
          "internalType": "address",
          "name": "",
          "type": "address"
        }
      ],
      "stateMutability": "view",
      "type": "function"
    },
    {
      "inputs": [],
      "name": "pause",
      "outputs": [],
      "stateMutability": "nonpayable",
      "type": "function"
    },
    {
      "inputs": [],
      "name": "paused",
      "outputs": [
        {
          "internalType": "bool",
          "name": "",
          "type": "bool"
        }
      ],
      "stateMutability": "view",
      "type": "function"
    },
    {
      "inputs": [],
      "name": "periodFinish",
      "outputs": [
        {
          "internalType": "uint256",
          "name": "",
          "type": "uint256"
        }
      ],
      "stateMutability": "view",
      "type": "function"
    },
    {
      "inputs": [
        {
          "internalType": "address",
          "name": "tokenAddress",
          "type": "address"
        },
        {
          "internalType": "uint256",
          "name": "tokenAmount",
          "type": "uint256"
        }
      ],
      "name": "recoverERC20",
      "outputs": [],
      "stateMutability": "nonpayable",
      "type": "function"
    },
    {
      "inputs": [],
      "name": "renounceOwnership",
      "outputs": [],
      "stateMutability": "nonpayable",
      "type": "function"
    },
    {
      "inputs": [],
      "name": "rewardPerToken",
      "outputs": [
        {
          "internalType": "uint256",
          "name": "",
          "type": "uint256"
        }
      ],
      "stateMutability": "view",
      "type": "function"
    },
    {
      "inputs": [],
      "name": "rewardPerTokenStored",
      "outputs": [
        {
          "internalType": "uint256",
          "name": "",
          "type": "uint256"
        }
      ],
      "stateMutability": "view",
      "type": "function"
    },
    {
      "inputs": [],
      "name": "rewardRate",
      "outputs": [
        {
          "internalType": "uint256",
          "name": "",
          "type": "uint256"
        }
      ],
      "stateMutability": "view",
      "type": "function"
    },
    {
      "inputs": [
        {
          "internalType": "address",
          "name": "",
          "type": "address"
        }
      ],
      "name": "rewards",
      "outputs": [
        {
          "internalType": "uint256",
          "name": "",
          "type": "uint256"
        }
      ],
      "stateMutability": "view",
      "type": "function"
    },
    {
      "inputs": [],
      "name": "rewardsDuration",
      "outputs": [
        {
          "internalType": "uint256",
          "name": "",
          "type": "uint256"
        }
      ],
      "stateMutability": "view",
      "type": "function"
    },
    {
      "inputs": [],
      "name": "rewardsToken",
      "outputs": [
        {
          "internalType": "contract IERC20",
          "name": "",
          "type": "address"
        }
      ],
      "stateMutability": "view",
      "type": "function"
    },
    {
      "inputs": [
        {
          "internalType": "uint256",
          "name": "_rewardsDuration",
          "type": "uint256"
        }
      ],
      "name": "setRewardsDuration",
      "outputs": [],
      "stateMutability": "nonpayable",
      "type": "function"
    },
    {
      "inputs": [
        {
          "internalType": "uint256",
          "name": "amount",
          "type": "uint256"
        }
      ],
      "name": "stake",
      "outputs": [],
      "stateMutability": "nonpayable",
      "type": "function"
    },
    {
      "inputs": [],
      "name": "stakingToken",
      "outputs": [
        {
          "internalType": "contract IERC20",
          "name": "",
          "type": "address"
        }
      ],
      "stateMutability": "view",
      "type": "function"
    },
    {
      "inputs": [],
      "name": "totalSupply",
      "outputs": [
        {
          "internalType": "uint256",
          "name": "",
          "type": "uint256"
        }
      ],
      "stateMutability": "view",
      "type": "function"
    },
    {
      "inputs": [
        {
          "internalType": "address",
          "name": "newOwner",
          "type": "address"
        }
      ],
      "name": "transferOwnership",
      "outputs": [],
      "stateMutability": "nonpayable",
      "type": "function"
    },
    {
      "inputs": [],
      "name": "unpause",
      "outputs": [],
      "stateMutability": "nonpayable",
      "type": "function"
    },
    {
      "inputs": [
        {
          "internalType": "address",
          "name": "",
          "type": "address"
        }
      ],
      "name": "userRewardPerTokenPaid",
      "outputs": [
        {
          "internalType": "uint256",
          "name": "",
          "type": "uint256"
        }
      ],
      "stateMutability": "view",
      "type": "function"
    },
    {
      "inputs": [
        {
          "internalType": "uint256",
          "name": "amount",
          "type": "uint256"
        }
      ],
      "name": "withdraw",
      "outputs": [],
      "stateMutability": "nonpayable",
      "type": "function"
    }
  ],
  "transactionHash": "0x3c0b2a125b11709f009ce4e306b1b636b59912ceb09ceb0f6cef311ee25039f2",
  "args": [
    "0xcFaf01F8Fe01Ccb3dBc8580c3d79fc02F5ff5c2d",
    "0xf95A907E599d720A22e9688238aFf1C3d2904bFb"
  ],
  "solcInputHash": "0084d8ef7d36b30f2e441011d5137d2a",
  "bytecode": "0x60806040526000600355600060045562278d006005553480156200002257600080fd5b5060405162001728380380620017288339810160408190526200004591620000fc565b62000050336200008f565b6000805460ff60a01b19169055600180546001600160a01b039384166001600160a01b0319918216179091556002805492909316911617905562000134565b600080546001600160a01b038381166001600160a01b0319831681178455604051919092169283917f8be0079c531659141344cd1fd0a4f28419497f9722a3daafe3b4186f6b6457e09190a35050565b80516001600160a01b0381168114620000f757600080fd5b919050565b600080604083850312156200011057600080fd5b6200011b83620000df565b91506200012b60208401620000df565b90509250929050565b6115e480620001446000396000f3fe608060405234801561001057600080fd5b50600436106101b85760003560e01c806380faa57d116100f9578063cc1a378f11610097578063df136d6511610071578063df136d65146103b3578063e9fad8ee146103bc578063ebe2b12b146103c4578063f2fde38b146103cd57600080fd5b8063cc1a378f14610378578063cd3daf9d1461038b578063d1af0c7d1461039357600080fd5b80638b876347116100d35780638b8763471461031e5780638da5cb5b1461033e578063a694fc3a1461035c578063c8f33c911461036f57600080fd5b806380faa57d146102fb5780638456cb59146103035780638980f11f1461030b57600080fd5b80633d18b9121161016657806370a082311161014057806370a082311461026f578063715018a6146102a557806372f702f3146102ad5780637b0a47ee146102f257600080fd5b80633d18b912146102315780633f4ba83a146102395780635c975abb1461024157600080fd5b80631c1f78eb116101975780631c1f78eb1461020b5780632e1a7d4d14610213578063386a95251461022857600080fd5b80628cc262146101bd5780630700037d146101e357806318160ddd14610203575b600080fd5b6101d06101cb366004611451565b6103e0565b6040519081526020015b60405180910390f35b6101d06101f1366004611451565b60096020526000908152604090205481565b600a546101d0565b6101d0610477565b6102266102213660046114bf565b61048e565b005b6101d060055481565b610226610692565b610226610811565b60005474010000000000000000000000000000000000000000900460ff1660405190151581526020016101da565b6101d061027d366004611451565b73ffffffffffffffffffffffffffffffffffffffff166000908152600b602052604090205490565b61022661089c565b6002546102cd9073ffffffffffffffffffffffffffffffffffffffff1681565b60405173ffffffffffffffffffffffffffffffffffffffff90911681526020016101da565b6101d060045481565b6101d0610927565b61022661093e565b610226610319366004611473565b6109c7565b6101d061032c366004611451565b60086020526000908152604090205481565b60005473ffffffffffffffffffffffffffffffffffffffff166102cd565b61022661036a3660046114bf565b610c27565b6101d060065481565b6102266103863660046114bf565b610ea9565b6101d061101c565b6001546102cd9073ffffffffffffffffffffffffffffffffffffffff1681565b6101d060075481565b61022661107d565b6101d060035481565b6102266103db366004611451565b61109e565b73ffffffffffffffffffffffffffffffffffffffff81166000908152600960209081526040808320546008909252822054670de0b6b3a76400009061042361101c565b61042d9190611568565b73ffffffffffffffffffffffffffffffffffffffff85166000908152600b602052604090205461045d919061152b565b61046791906114f0565b61047191906114d8565b92915050565b6000600554600454610489919061152b565b905090565b3361049761101c565b6007556104a2610927565b60065573ffffffffffffffffffffffffffffffffffffffff811615610503576104ca816103e0565b73ffffffffffffffffffffffffffffffffffffffff82166000908152600960209081526040808320939093556007546008909152919020555b60008211610572576040517f08c379a000000000000000000000000000000000000000000000000000000000815260206004820152601160248201527f43616e6e6f74207769746864726177203000000000000000000000000000000060448201526064015b60405180910390fd5b81600a60008282546105849190611568565b9091555050336000908152600b6020526040812080548492906105a8908490611568565b90915550506002546040517fa9059cbb0000000000000000000000000000000000000000000000000000000081523360048201526024810184905273ffffffffffffffffffffffffffffffffffffffff9091169063a9059cbb90604401602060405180830381600087803b15801561061f57600080fd5b505af1158015610633573d6000803e3d6000fd5b505050506040513d601f19601f82011682018060405250810190610657919061149d565b5060405182815233907f7084f5476618d8e60b11ef0d7d3f06914655adb8793e28ff7f018d4c76d505d5906020015b60405180910390a25050565b3361069b61101c565b6007556106a6610927565b60065573ffffffffffffffffffffffffffffffffffffffff811615610707576106ce816103e0565b73ffffffffffffffffffffffffffffffffffffffff82166000908152600960209081526040808320939093556007546008909152919020555b33600090815260096020526040902054801561080d57336000818152600960205260408082209190915560015490517fa9059cbb00000000000000000000000000000000000000000000000000000000815260048101929092526024820183905273ffffffffffffffffffffffffffffffffffffffff169063a9059cbb90604401602060405180830381600087803b1580156107a257600080fd5b505af11580156107b6573d6000803e3d6000fd5b505050506040513d601f19601f820116820180604052508101906107da919061149d565b5060405181815233907fe2403640ba68fed3a2f88b7557551d1993f84b99bb10ff833f0cf8db0c5e048690602001610686565b5050565b60005473ffffffffffffffffffffffffffffffffffffffff163314610892576040517f08c379a000000000000000000000000000000000000000000000000000000000815260206004820181905260248201527f4f776e61626c653a2063616c6c6572206973206e6f7420746865206f776e65726044820152606401610569565b61089a6111ce565b565b60005473ffffffffffffffffffffffffffffffffffffffff16331461091d576040517f08c379a000000000000000000000000000000000000000000000000000000000815260206004820181905260248201527f4f776e61626c653a2063616c6c6572206973206e6f7420746865206f776e65726044820152606401610569565b61089a60006112c7565b60006003544210610939575060035490565b504290565b60005473ffffffffffffffffffffffffffffffffffffffff1633146109bf576040517f08c379a000000000000000000000000000000000000000000000000000000000815260206004820181905260248201527f4f776e61626c653a2063616c6c6572206973206e6f7420746865206f776e65726044820152606401610569565b61089a61133c565b60005473ffffffffffffffffffffffffffffffffffffffff163314610a48576040517f08c379a000000000000000000000000000000000000000000000000000000000815260206004820181905260248201527f4f776e61626c653a2063616c6c6572206973206e6f7420746865206f776e65726044820152606401610569565b60025473ffffffffffffffffffffffffffffffffffffffff83811691161415610af3576040517f08c379a000000000000000000000000000000000000000000000000000000000815260206004820152602160248201527f43616e6e6f7420776974686472617720746865207374616b696e6720746f6b6560448201527f6e000000000000000000000000000000000000000000000000000000000000006064820152608401610569565b8173ffffffffffffffffffffffffffffffffffffffff1663a9059cbb610b2e60005473ffffffffffffffffffffffffffffffffffffffff1690565b6040517fffffffff0000000000000000000000000000000000000000000000000000000060e084901b16815273ffffffffffffffffffffffffffffffffffffffff909116600482015260248101849052604401602060405180830381600087803b158015610b9b57600080fd5b505af1158015610baf573d6000803e3d6000fd5b505050506040513d601f19601f82011682018060405250810190610bd3919061149d565b506040805173ffffffffffffffffffffffffffffffffffffffff84168152602081018390527f8c1256b8896378cd5044f80c202f9772b9d77dc85c8a6eb51967210b09bfaa28910160405180910390a15050565b60005474010000000000000000000000000000000000000000900460ff1615610cac576040517f08c379a000000000000000000000000000000000000000000000000000000000815260206004820152601060248201527f5061757361626c653a20706175736564000000000000000000000000000000006044820152606401610569565b33610cb561101c565b600755610cc0610927565b60065573ffffffffffffffffffffffffffffffffffffffff811615610d2157610ce8816103e0565b73ffffffffffffffffffffffffffffffffffffffff82166000908152600960209081526040808320939093556007546008909152919020555b60008211610d8b576040517f08c379a000000000000000000000000000000000000000000000000000000000815260206004820152600e60248201527f43616e6e6f74207374616b6520300000000000000000000000000000000000006044820152606401610569565b81600a6000828254610d9d91906114d8565b9091555050336000908152600b602052604081208054849290610dc19084906114d8565b90915550506002546040517f23b872dd0000000000000000000000000000000000000000000000000000000081523360048201523060248201526044810184905273ffffffffffffffffffffffffffffffffffffffff909116906323b872dd90606401602060405180830381600087803b158015610e3e57600080fd5b505af1158015610e52573d6000803e3d6000fd5b505050506040513d601f19601f82011682018060405250810190610e76919061149d565b5060405182815233907f9e71bc8eea02a63969f509818f2dafb9254532904319f9dbda79b67bd34a5f3d90602001610686565b60005473ffffffffffffffffffffffffffffffffffffffff163314610f2a576040517f08c379a000000000000000000000000000000000000000000000000000000000815260206004820181905260248201527f4f776e61626c653a2063616c6c6572206973206e6f7420746865206f776e65726044820152606401610569565b6003544211610fe1576040517f08c379a000000000000000000000000000000000000000000000000000000000815260206004820152605860248201527f50726576696f7573207265776172647320706572696f64206d7573742062652060448201527f636f6d706c657465206265666f7265206368616e67696e67207468652064757260648201527f6174696f6e20666f7220746865206e657720706572696f640000000000000000608482015260a401610569565b60058190556040518181527ffb46ca5a5e06d4540d6387b930a7c978bce0db5f449ec6b3f5d07c6e1d44f2d39060200160405180910390a150565b6000600a546000141561102f5750600090565b600a54600454600654611040610927565b61104a9190611568565b611054919061152b565b61106690670de0b6b3a764000061152b565b61107091906114f0565b60075461048991906114d8565b336000908152600b60205260409020546110969061048e565b61089a610692565b60005473ffffffffffffffffffffffffffffffffffffffff16331461111f576040517f08c379a000000000000000000000000000000000000000000000000000000000815260206004820181905260248201527f4f776e61626c653a2063616c6c6572206973206e6f7420746865206f776e65726044820152606401610569565b73ffffffffffffffffffffffffffffffffffffffff81166111c2576040517f08c379a000000000000000000000000000000000000000000000000000000000815260206004820152602660248201527f4f776e61626c653a206e6577206f776e657220697320746865207a65726f206160448201527f64647265737300000000000000000000000000000000000000000000000000006064820152608401610569565b6111cb816112c7565b50565b60005474010000000000000000000000000000000000000000900460ff16611252576040517f08c379a000000000000000000000000000000000000000000000000000000000815260206004820152601460248201527f5061757361626c653a206e6f74207061757365640000000000000000000000006044820152606401610569565b600080547fffffffffffffffffffffff00ffffffffffffffffffffffffffffffffffffffff1690557f5db9ee0a495bf2e6ff9c91a7834c1ba4fdd244a5e8aa4e537bd38aeae4b073aa335b60405173ffffffffffffffffffffffffffffffffffffffff909116815260200160405180910390a1565b6000805473ffffffffffffffffffffffffffffffffffffffff8381167fffffffffffffffffffffffff0000000000000000000000000000000000000000831681178455604051919092169283917f8be0079c531659141344cd1fd0a4f28419497f9722a3daafe3b4186f6b6457e09190a35050565b60005474010000000000000000000000000000000000000000900460ff16156113c1576040517f08c379a000000000000000000000000000000000000000000000000000000000815260206004820152601060248201527f5061757361626c653a20706175736564000000000000000000000000000000006044820152606401610569565b600080547fffffffffffffffffffffff00ffffffffffffffffffffffffffffffffffffffff16740100000000000000000000000000000000000000001790557f62e78cea01bee320cd4e420270b5ea74000d11b0c9f74754ebdbfc544b05a25861129d3390565b803573ffffffffffffffffffffffffffffffffffffffff8116811461144c57600080fd5b919050565b60006020828403121561146357600080fd5b61146c82611428565b9392505050565b6000806040838503121561148657600080fd5b61148f83611428565b946020939093013593505050565b6000602082840312156114af57600080fd5b8151801515811461146c57600080fd5b6000602082840312156114d157600080fd5b5035919050565b600082198211156114eb576114eb61157f565b500190565b600082611526577f4e487b7100000000000000000000000000000000000000000000000000000000600052601260045260246000fd5b500490565b6000817fffffffffffffffffffffffffffffffffffffffffffffffffffffffffffffffff04831182151516156115635761156361157f565b500290565b60008282101561157a5761157a61157f565b500390565b7f4e487b7100000000000000000000000000000000000000000000000000000000600052601160045260246000fdfea264697066735822122007c00a698f77a15c1d55fb1a1403353b61687e754200569fa5bda241c112cfd564736f6c63430008070033",
  "devdoc": {
    "kind": "dev",
    "methods": {
      "owner()": {
        "details": "Returns the address of the current owner."
      },
      "paused()": {
        "details": "Returns true if the contract is paused, and false otherwise."
      },
      "renounceOwnership()": {
        "details": "Leaves the contract without owner. It will not be possible to call `onlyOwner` functions anymore. Can only be called by the current owner. NOTE: Renouncing ownership will leave the contract without an owner, thereby removing any functionality that is only available to the owner."
      },
      "transferOwnership(address)": {
        "details": "Transfers ownership of the contract to a new account (`newOwner`). Can only be called by the current owner."
      }
    },
    "version": 1
  },
  "userdoc": {
    "kind": "user",
    "methods": {},
    "version": 1
  },
  "storageLayout": {
    "storage": [
      {
        "astId": 7,
        "contract": "contracts/farms/RoseStablesFarm.sol:RoseStablesFarm",
        "label": "_owner",
        "offset": 0,
        "slot": "0",
        "type": "t_address"
      },
      {
        "astId": 121,
        "contract": "contracts/farms/RoseStablesFarm.sol:RoseStablesFarm",
        "label": "_paused",
        "offset": 20,
        "slot": "0",
        "type": "t_bool"
      },
      {
        "astId": 1511,
        "contract": "contracts/farms/RoseStablesFarm.sol:RoseStablesFarm",
        "label": "rewardsToken",
        "offset": 0,
        "slot": "1",
        "type": "t_contract(IERC20)819"
      },
      {
        "astId": 1514,
        "contract": "contracts/farms/RoseStablesFarm.sol:RoseStablesFarm",
        "label": "stakingToken",
        "offset": 0,
        "slot": "2",
        "type": "t_contract(IERC20)819"
      },
      {
        "astId": 1517,
        "contract": "contracts/farms/RoseStablesFarm.sol:RoseStablesFarm",
        "label": "periodFinish",
        "offset": 0,
        "slot": "3",
        "type": "t_uint256"
      },
      {
        "astId": 1520,
        "contract": "contracts/farms/RoseStablesFarm.sol:RoseStablesFarm",
        "label": "rewardRate",
        "offset": 0,
        "slot": "4",
        "type": "t_uint256"
      },
      {
        "astId": 1523,
        "contract": "contracts/farms/RoseStablesFarm.sol:RoseStablesFarm",
        "label": "rewardsDuration",
        "offset": 0,
        "slot": "5",
        "type": "t_uint256"
      },
      {
        "astId": 1525,
        "contract": "contracts/farms/RoseStablesFarm.sol:RoseStablesFarm",
        "label": "lastUpdateTime",
        "offset": 0,
        "slot": "6",
        "type": "t_uint256"
      },
      {
        "astId": 1527,
        "contract": "contracts/farms/RoseStablesFarm.sol:RoseStablesFarm",
        "label": "rewardPerTokenStored",
        "offset": 0,
        "slot": "7",
        "type": "t_uint256"
      },
      {
        "astId": 1531,
        "contract": "contracts/farms/RoseStablesFarm.sol:RoseStablesFarm",
        "label": "userRewardPerTokenPaid",
        "offset": 0,
        "slot": "8",
        "type": "t_mapping(t_address,t_uint256)"
      },
      {
        "astId": 1535,
        "contract": "contracts/farms/RoseStablesFarm.sol:RoseStablesFarm",
        "label": "rewards",
        "offset": 0,
        "slot": "9",
        "type": "t_mapping(t_address,t_uint256)"
      },
      {
        "astId": 1537,
        "contract": "contracts/farms/RoseStablesFarm.sol:RoseStablesFarm",
        "label": "_totalSupply",
        "offset": 0,
        "slot": "10",
        "type": "t_uint256"
      },
      {
        "astId": 1541,
        "contract": "contracts/farms/RoseStablesFarm.sol:RoseStablesFarm",
        "label": "_balances",
        "offset": 0,
        "slot": "11",
        "type": "t_mapping(t_address,t_uint256)"
      }
    ],
    "types": {
      "t_address": {
        "encoding": "inplace",
        "label": "address",
        "numberOfBytes": "20"
      },
      "t_bool": {
        "encoding": "inplace",
        "label": "bool",
        "numberOfBytes": "1"
      },
      "t_contract(IERC20)819": {
        "encoding": "inplace",
        "label": "contract IERC20",
        "numberOfBytes": "20"
      },
      "t_mapping(t_address,t_uint256)": {
        "encoding": "mapping",
        "key": "t_address",
        "label": "mapping(address => uint256)",
        "numberOfBytes": "32",
        "value": "t_uint256"
      },
      "t_uint256": {
        "encoding": "inplace",
        "label": "uint256",
        "numberOfBytes": "32"
      }
    }
  }
}